:1000000050C200006FC200006DC200006BC2000051
:1000100069C2000067C2000065C2000063C2000040
:1000200061C200005FC200005DC200000C94000AC3
:1000300059C2000057C200000C94E90F53C20000DF
:1000400051C200004FC200004DC200004BC2000070
:1000500049C2000047C2000045C2000043C2000080
:1000600041C200003FC200003DC200003BC2000090
:1000700039C2000037C2000035C2000033C20000A0
:1000800031C200002FC200002DC200002BC20000B0
:1000900029C2000027C2000025C20000E9C70000F5
:1000A0000C946A080C949C080C94CE081BC20000A7
:1000B00019C2000017C2000015C2000013C20000E0
:1000C00011C200000FC200000DC200000BC20000F0
:1000D00009C2000007C2000005C2000003C2000000
:1000E00001C20000FFC10000FDC10000FBC1000013
:1000F000F9C10000F7C10000F5C10000F3C1000024
:10010000F1C10000EFC10000EDC10000EBC1000033
:10011000E9C10000E7C10000E5C10000E1C6000040
:1001200011C7000041C7000071C70000DBC100001B
:10013000D9C10000D7C10000D5C10000D3C1000063
:10014000D1C10000CFC10000CDC10000CBC1000073
:10015000C9C10000C7C10000C5C10000C3C1000083
:10016000C1C10000BFC10000BDC10000BBC1000093
:10017000B9C10000B7C10000B5C10000B3C10000A3
:10018000B1C10000AFC10000ADC10000ABC10000B3
:10019000A9C10000A7C10000A5C10000A3C10000C3
:1001A000A1C100009FC100009DC100009BC10000D3
:1001B00099C1000097C1000095C1000093C10000E3
:1001C00091C100008FC100008DC100008BC10000F3
:1001D00089C1000087C1000085C1000083C1000003
:1001E00081C100007FC100007DC100007BC1000013
:1001F00079C1000077C1000075C10000EC18EC184F
:10020000EC18221912191F19EC18EC1822191219DE
:10021000000000000000002020202020002050507E
:1002200050000000005050F850F850502078A07056
:1002300028F020C0C810204098186090A040A890D6
:100240006860204000000000102040404020104026
:10025000201010102040005020F8205000002020D6
:10026000F820200000000000602040000000F8009E
:1002700000000000000000606000081020408000C6
:10028000708898A8C888702060202020207070880E
:1002900008102040F8F81020100888701030509096
:1002A000F81010F880F008088870304080F08888D6
:1002B00070F80810204040407088887088887070FE
:1002C00088887808106000606000606000006060EE
:1002D00000602040081020402010080000F800F8BE
:1002E00000008040201020408070880810200020EE
:1002F00070880868A8A87070888888F88888F0884E
:1003000088F08888F070888080808870E090888885
:100310008890E0F88080F08080F8F88080E080802D
:100320008070888080988870888888F8888888702D
:10033000202020202070381010101090608890A08D
:10034000C0A09088808080808080F888D8A8888825
:1003500088888888C8A898888870888888888870DD
:10036000F08888F080808070888888A89068F088FD
:1003700088F0A09088788080700808F0F82020200D
:100380002020208888888888887088888888885075
:1003900020888888A8A8D88888885020508888888D
:1003A000885020202020F80810204080F838202095
:1003B0002020203800804020100800E0202020204D
:1003C00020E020508800000000000000000000F83D
:1003D00040201000000000000070087888788080BD
:1003E000B0C88888F000007080808870080868981D
:1003F00088887800007088F88070304840E040407D
:1004000040000078887808308080B0C888888820CC
:100410000060202020701000301010906040404894
:1004200050605048602020202020700000D0A8A8F4
:1004300088880000B0C88888880000708888887024
:100440000000F088F08080000068987808080000BC
:10045000B0C8808080000070807008F04040E040AC
:100460004048300000888888986800008888885054
:100470002000008888A8A8500000885020508800DC
:100480000088887808700000F8102040F8102020BC
:10049000402020102020202020202040202010203C
:1004A000204011241FBECFEFCDBFDFE5DEBF00E04F
:1004B0000CBF10E2A0E0B0E2E4E3F2E400E00BBF26
:1004C00002C007900D92AE34B107D9F724E2AEE432
:1004D000B0E201C01D92A131B207E1F70E94851B75
:1004E0000C9418218DCD6150710981099109D9F7BA
:1004F0000895BF92CF92DF92EF92FF920F931F93D6
:10050000CF93DF931F92CDB7DEB700E016E068947B
:10051000FF24F3F8F801F68263E070E080E090E0F9
:10052000E2DFF801F58263E070E080E090E0DBDF7D
:100530000F2EFBE2BF2EF02DB98280EA99E008D49D
:10054000C12CD12C760100E412E42FE030E043E02E
:10055000BE016F5F7F4F80EA99E029D400E616E084
:10056000FF24F394F801F682B982BE016F5F7F4FDA
:1005700080EA99E036D4F801F682E0EAF9E0818178
:1005800085FFFDCF80EA8093A009E0EAF9E0818150
:1005900086FFFDCFE0EAF9E080E481838081BE013F
:1005A0006F5F7F4F80EA99E032D48BE28983BE018E
:1005B0006F5F7F4F80EA99E014D481E080936606F4
:1005C000E0EAF9E0818185FFFDCF86EA8093A0090A
:1005D000E0EAF9E0818186FFFDCFE0EAF9E080E41E
:1005E00081838081BE016F5F7F4F80EA99E00FD4E5
:1005F0008BE28983BE016F5F7F4F80EA99E0F1D380
:1006000081E080936606E0EAF9E0818185FFFDCF15
:1006100088EC8093A009E0EAF9E0818186FFFDCFB4
:10062000E0EAF9E080E481838081BE016F5F7F4F63
:1006300080EA99E0ECD38BE28983BE016F5F7F4F44
:1006400080EA99E0CED381E080936606E0EAF9E0A3
:10065000818185FFFDCF82EA8093A009E0EAF9E07D
:10066000818186FFFDCFE0EAF9E080E4818380812B
:10067000BE016F5F7F4F80EA99E0C9D38BE2898327
:10068000BE016F5F7F4F80EA99E0ABD381E080933A
:100690006606E0EAF9E0818185FFFDCF8FE2809375
:1006A000A009E0EAF9E0818186FFFDCFE0EAF9E008
:1006B00080E481838081BE016F5F7F4F80EA99E093
:1006C000A6D38BE28983BE016F5F7F4F80EA99E0FA
:1006D00088D381E080936606E0EAF9E0818185FFB6
:1006E000FDCF88EF8093A009E0EAF9E0818186FFE1
:1006F000FDCFE0EAF9E080E481838081BE016F5F95
:100700007F4F80EA99E083D38BE28983BE016F5FDC
:100710007F4F80EA99E065D381E080936606E0EA46
:10072000F9E0818185FFFDCF1092A009E0EAF9E0B0
:10073000818186FFFDCFE0EAF9E080E4818380815A
:10074000BE016F5F7F4F80EA99E061D38BE28983BE
:10075000BE016F5F7F4F80EA99E043D381E08093D1
:100760006606E0EAF9E0818185FFFDCF81E28093B2
:10077000A009E0EAF9E0818186FFFDCFE0EAF9E037
:1007800080E481838081BE016F5F7F4F80EA99E0C2
:100790003ED38BE28983BE016F5F7F4F80EA99E091
:1007A00020D381E080936606E0EAF9E0818185FF4D
:1007B000FDCF81E88093A009E0EAF9E0818186FF1E
:1007C000FDCFE0EAF9E080E481838081BE016F5FC4
:1007D0007F4F80EA99E01BD38BE28983BE016F5F74
:1007E0007F4F80EA99E0FDD281E080936606E0EADF
:1007F000F9E0818185FFFDCF81E28093A009E0EAE5
:10080000F9E0818186FFFDCFE0EAF9E080E48183B1
:100810008081BE016F5F7F4F80EA99E0F8D28BE262
:100820008983BE016F5F7F4F80EA99E0DAD281E071
:1008300080936606E0EAF9E0818185FFFDCF8FEACB
:100840008093A009E0EAF9E0818186FFFDCFE0EA2C
:10085000F9E080E481838081BE016F5F7F4F80EA91
:1008600099E0D5D20F90DF91CF911F910F91FF901A
:10087000EF90DF90CF90BF9008958FEF809370003E
:100880008093710080937200809373008093740052
:10089000809375008093760008959FB7F894E82FB1
:1008A000F0E0E059FF4F60958081682360839FBF2F
:1008B00008959FB7F894E82FF0E0E059FF4F80814A
:1008C000682B60839FBF0895FF920F931F93CF9370
:1008D000DF931F92CDB7DEB7082FF62E142F1AD153
:1008E0000F70006B8BE28983BE016F5F7F4F80EAE0
:1008F00099E077D281E080936606E0EAF9E09181A1
:1009000095FFFDCF0093A009E0EAF9E0818186FF21
:10091000FDCFE0EAF9E080E481838081BE016F5F72
:100920007F4F80EA99E073D20F2D0F7702950F70F9
:1009300000618BE28983BE016F5F7F4F80EA99E09F
:1009400050D281E080936606E0EAF9E0818185FF7C
:10095000FDCF0093A009E0EAF9E0818186FFFDCF99
:10096000E0EAF9E080E481838081BE016F5F7F4F20
:1009700080EA99E04CD20F2D0F708BE28983BE0183
:100980006F5F7F4F80EA99E02CD281E0809366060A
:10099000E0EAF9E0818185FFFDCF0093A009E0EA5C
:1009A000F9E0818186FFFDCFE0EAF9E080E4818310
:1009B0008081BE016F5F7F4F80EA99E028D28BE291
:1009C0008983BE016F5F7F4F80EA99E00AD281E0A0
:1009D00080936506E0EAF9E0818185FFFDCF109301
:1009E000A009E0EAF9E0818186FFFDCFE0EAF9E0C5
:1009F00080E48183808181E080936606BE016F5F21
:100A00007F4F80EA99E003D20F90DF91CF911F9141
:100A10000F91FF9008950F931F93CF93DF931F9231
:100A2000CDB7DEB78EE490E270D063DD8BE28983D0
:100A3000BE016F5F7F4F80EA99E0D3D181E0809360
:100A40006606E0EAF9E0818185FFFDCF80E48093CE
:100A5000A009E0EAF9E0818186FFFDCFE0EAF9E054
:100A600080E481838081BE016F5F7F4F80EA99E0DF
:100A7000CED100E00AC040E0612F802F25DF1F5F4C
:100A80001038C9F70F5F043011F010E0F4CF0F9069
:100A9000DF91CF911F910F910895FF920F931F93B4
:100AA000CF93DF9388234CF1603238F5D42FC82FD1
:100AB000F62EF694F694F69470E088E0F89E6019AD
:100AC0007109112481E090E08C0102C0000F111F18
:100AD0006A95E2F76C2F8F2D2BD0D13021F028F0C2
:100AE000D23031F006C0802B04C00095802301C0B5
:100AF0008027482F6C2F8F2DE7DEDF91CF911F913C
:100B00000F91FF90089514C0089580934E22909302
:100B10004F22089520914E2230914F2290E8899FD4
:100B2000200D311D1124F901E60FF11D40830895B8
:100B300020914E2230914F2290E8899F200D311D47
:100B40001124F901E60FF11D80810895FF920F93A2
:100B50001F93CF93DF93E42FF0E0E80FF11DE1380E
:100B6000F1051CF0C0E84C2F481B442309F44AC08F
:100B7000D62FD695D695D69570E098E0D99F601976
:100B800071091124E1E0F0E0DF0102C0AA0FBB1FF0
:100B90006A95E2F7FA2E213021F098F0223019F10F
:100BA00031C0C42F1FEF180F012F0C0F602F8D2F96
:100BB000AADF4F2D482B602F8D2F86DEC150A1F765
:100BC00021C0C42F1FEF180FFA2EF094012F0C0F25
:100BD000602F8D2F98DF4F2D4823602F8D2F74DECF
:100BE000C150A1F70FC0C42F1FEF180F012F0C0F1A
:100BF000602F8D2F88DF4F2D4827602F8D2F64DECB
:100C0000C150A1F7DF91CF911F910F91FF900895EF
:100C1000FF920F931F93CF93DF93222369F0F42E5B
:100C2000182FC22FDFEFD60F6D2F6C0F202F4F2DF7
:100C3000812F8CDFC150C1F7DF91CF911F910F91B0
:100C4000FF900895AF92BF92CF92DF92EF92FF9202
:100C50000F931F93CF93DF93C82FE62EB42E690115
:100C600000E0F901248143816B2D8E2DD1DFF60147
:100C70008081811139C08381282F2695269526955C
:100C8000877009F02F5FF601A4808C2F90E03581EA
:100C9000831B91092A9D90011124829FA001839FAB
:100CA000500D929F500D112401811281040F151FC8
:100CB000F601F380FF20A1F0D0E0C0E08E2D8C0F74
:100CC0009C2F977021F4F801D4910F5F1F4FDD2303
:100CD0001CF441E06B2DE1DEDD0FCF5FFC12EECFA7
:100CE000B394AA94A110E4CFDF91CF911F910F91FB
:100CF000FF90EF90DF90CF90BF90AF900895DF927C
:100D0000EF92FF920F931F93CF93DF93D62E042F72
:100D10007901EC01162F89918A3031F4F701848131
:100D20008F5F080F1D2D09C08D3039F09701402FBE
:100D3000612F88DFF7018381180F88818111EBCF44
:100D4000DF91CF911F910F91FF90EF90DF90089569
:100D5000803A28E0920721F460E183E09ECD089577
:100D6000803B28E0920721F460E283E096CD08956D
:100D7000803A29E0920721F460E184E08ECD089565
:100D8000803B29E0920721F460E284E086CD08955B
:100D9000803A2AE0920721F460E185E07ECD089553
:100DA000803A9B4019F460E186E077CD08950F9377
:100DB0001F93CF93DF9300D000D0CDB7DEB7098368
:100DC0001A832B833C834D831E82BE016F5F7F4F4E
:100DD000A8D52696CDBFDEBFDF91CF911F910F9191
:100DE0000895FB018081E82FE695E695E69540E2BF
:100DF000E49FF0011124FA5F877021E030E0A9013F
:100E000002C0440F551F8A95E2F746830895FB01FF
:100E10008081E82FE695E695E69540E2E49FF001B3
:100E20001124FA5F877021E030E0A90102C0440F6D
:100E3000551F8A95E2F745830895811522E09207B0
:100E400061F48091512291E0980F90935122811189
:100E500012C062E081E021CD08958034924059F4BF
:100E60008091502291E0980F90935022811103C0FD
:100E700062E082E012CD0895811522E0920759F4D4
:100E800080915122815080935122811111C062E0E2
:100E900081E00FCD08958034924051F4809150222A
:100EA000815080935022811103C062E082E001CD25
:100EB00008951F93CF93DF93EC011FB7F894BDDF24
:100EC0008881816088831FBF9FB7F894E1E0F4E2D6
:100ED00081818F5F81839FBFDF91CF911F910895A3
:100EE0001F920F920FB60F9211240BB60F922F93F1
:100EF0003F934F935F936F937F938F939F93AF93A2
:100F0000BF93EF93FF934091240250912502E0910B
:100F10000924F0910A2461E080E092E01995FF91A4
:100F2000EF91BF91AF919F918F917F916F915F9161
:100F30004F913F912F910F900BBE0F900FBE0F90CE
:100F40001F9018951F920F920FB60F9211240BB697
:100F50000F922F933F934F935F936F937F938F9352
:100F60009F93AF93BF93EF93FF9340912C025091C7
:100F70002D02E0910924F0910A2462E080E092E0E1
:100F80001995FF91EF91BF91AF919F918F917F91B3
:100F90006F915F914F913F912F910F900BBE0F90EA
:100FA0000FBE0F901F9018951F920F920FB60F92C1
:100FB00011240BB60F922F933F934F935F936F9330
:100FC0007F938F939F93AF93BF93EF93FF93409142
:100FD000340250913502E0910924F0910A2464E032
:100FE00080E092E01995FF91EF91BF91AF919F91B1
:100FF0008F917F916F915F914F913F912F910F90C2
:101000000BBE0F900FBE0F901F9018951F920F925E
:101010000FB60F9211240BB60F922F933F934F935D
:101020005F936F937F938F939F93AF93BF93EF9350
:10103000FF9340913C0250913D02E0910924F091D0
:101040000A2468E080E092E01995FF91EF91BF914A
:10105000AF919F918F917F916F915F914F913F9150
:101060002F910F900BBE0F900FBE0F901F901895F1
:101070001F920F920FB60F9211240BB60F922F935F
:101080003F934F935F936F937F938F939F93AF9310
:10109000BF93EF93FF934091640250916502E091FA
:1010A0000724F091082461E080E492E01995FF9113
:1010B000EF91BF91AF919F918F917F916F915F91D0
:1010C0004F913F912F910F900BBE0F900FBE0F903D
:1010D0001F9018951F920F920FB60F9211240BB606
:1010E0000F922F933F934F935F936F937F938F93C1
:1010F0009F93AF93BF93EF93FF9340916C025091F6
:101100006D02E0910724F091082462E080E492E00F
:101110001995FF91EF91BF91AF919F918F917F9121
:101120006F915F914F913F912F910F900BBE0F9058
:101130000FBE0F901F9018951F920F920FB60F922F
:1011400011240BB60F922F933F934F935F936F939E
:101150007F938F939F93AF93BF93EF93FF934091B0
:10116000740250917502E0910724F091082464E024
:1011700080E492E01995FF91EF91BF91AF919F911B
:101180008F917F916F915F914F913F912F910F9030
:101190000BBE0F900FBE0F901F9018951F920F92CD
:1011A0000FB60F9211240BB60F922F933F934F93CC
:1011B0005F936F937F938F939F93AF93BF93EF93BF
:1011C000FF9340917C0250917D02E0910724F091C1
:1011D000082468E080E492E01995FF91EF91BF91B7
:1011E000AF919F918F917F916F915F914F913F91BF
:1011F0002F910F900BBE0F900FBE0F901F90189560
:10120000DF92EF92FF920F931F93CF93DF93EC0146
:101210008B01811522E0920771F461E270E082E0B7
:10122000D4D0E82EF12C60E270E082E0CED0FE2C2B
:10123000EE24E82A10C08034924051F565E270E057
:1012400082E0C3D0E82EF12C64E270E082E0BDD0F1
:10125000FE2CEE24E82ADFB6F894CE01EEDD88817C
:1012600092E09883EC86FD86F80125813681288FEF
:10127000398F92819A8394819C8393819B839181FE
:10128000998381709081892B8883CE01F5DDDFBE43
:10129000DF91CF911F910F91FF90EF90DF90089514
:1012A000FF920F931F93CF93DF93EC018B01FFB657
:1012B000F894C3DD8881807CF8018083888D998DC6
:1012C000858396838A8182838C8184838B818383C7
:1012D00089818183CE01D0DDFFBEDF91CF911F9147
:1012E0000F91FF900895CF92DF92EF92FF920F93AC
:1012F0001F93CF93DF937C01D62E8A01862F8370B4
:1013000029F4962F9695969582E002C0962F80E05C
:1013100090FF8F5FE701A09698E0899FC00DD11DD7
:101320001124CFB6F894C70188DDF8018081888345
:1013300082818A8381818983D0FE02C083818E83EA
:10134000C7019ADDCFBEDF91CF911F910F91FF9022
:10135000EF90DF90CF900895CF92DF92EF92FF92BF
:101360000F931F93CF93DF937C01D62E8A01862F94
:10137000837029F4962F9695969582E002C0962F59
:1013800080E090FF8F5FE701A09698E0899FC00DF5
:10139000D11D1124CFB6F894C7014FDD8881F80123
:1013A00080838A81828389818183D0FE02C08E817D
:1013B0008383C70161DDCFBEDF91CF911F910F9174
:1013C000FF90EF90DF90CF9008954091CA01E62FF3
:1013D000F72F8093CA0184914093CA01089580E158
:1013E00080932104E0E2F4E0818184FDFDCF6091EF
:1013F0002404709125048091260490912704089577
:101400001F920F920FB60F9211240BB60F922F93CB
:101410003F934F935F936F937F938F939F93AF937C
:10142000BF93CF93DF93EF93FF9310922204C09169
:101430000B24D0910C24209719F0D1DFFE011995CF
:10144000FF91EF91DF91CF91BF91AF919F918F91DC
:101450007F916F915F914F913F912F910F900BBEB4
:101460000F900FBE0F901F901895FC01918199234A
:10147000ECF7808108954F925F926F927F928F92E6
:101480009F92AF92BF92EF92FF920F931F93CF93D1
:101490007C014A015B0128013901FC01848182FF42
:1014A00016C0D901C801689412F8B695A79597950A
:1014B00087951694D1F7B901A801032E36E17695E8
:1014C0006795579547953A95D1F7302D15C0D901B5
:1014D000C801689413F8B695A795979587951694C3
:1014E000D1F7B901A801032E37E176956795579595
:1014F00047953A95D1F7302D88159905AA05BB0572
:1015000008F4A6C084169506A606B70608F4A2C07D
:10151000F701848182FD04C0880C991CAA1CBB1CA5
:10152000C301B201A50194010E94CA1C2F3F3105DD
:101530004105510508F490C08FEF90E0A0E0B0E0C5
:10154000C9EF05C0281739074A075B0758F0880F0D
:10155000991FAA1FBB1FCD3F0CF48160CF5FC7301E
:1015600089F74FC0CC230CF04CC0D501C401880FC3
:10157000991FAA1FBB1F880F991FAA1FBB1F880F87
:10158000991FAA1FBB1F481A590A6A0A7B0ACE3F35
:10159000F4F48DEF9FEF8C1B9109C7FD939504C068
:1015A000440C551C661C771C8A95D2F7D501C401E2
:1015B000B695A79597958795BC01CD01640D751DCE
:1015C000861D971DA50194010E94CA1C37C083E0A7
:1015D0008C0FA501940104C0220F331F441F551F17
:1015E0008A95D2F7DA01C901B695A795979587959F
:1015F000BC01CD01640D751D861D971D0E94CA1C7E
:101600001DC083E08C0FA501940104C0220F331F7D
:10161000441F551F8A95D2F7DA01C901B695A795DF
:1016200097958795BC01CD01640D751D861D971D8D
:101630000E94CA1C2150310941095109832F8F7022
:10164000C295C07FC82BF701C783268381E018C0ED
:1016500080E016C080E014C0D501C401880F991F36
:10166000AA1FBB1F880F991FAA1FBB1F880F991F96
:10167000AA1FBB1F481A590A6A0A7B0AC9EF89CFF9
:10168000CF911F910F91FF90EF90BF90AF909F90DF
:101690008F907F906F905F904F9008950F931F935E
:1016A000CF93DF93EC018B01009709F4E6C0803CF7
:1016B000910521F460E180E0F0D8DFC0C03881E01E
:1016C000D80721F462E080E0E8D8D7C0C115E1E096
:1016D000DE0721F461E080E0E0D8CFC0C038F3E05D
:1016E000DF0721F461E081E0D8D8C7C0C03983E0CA
:1016F000D80721F461E082E0D0D8BFC0C115E2E094
:10170000DE0721F462E081E0C8D8B7C0C034F2E05F
:10171000DF0721F462E082E0C0D8AFC0C03283E0CE
:10172000D80721F464E082E0B8D8A7C0C115E8E08A
:10173000DE0721F461E083E0B0D89FC0C115F9E075
:10174000DF0721F461E084E0A8D897C0C1158AE0E2
:10175000D80721F461E085E0A0D88FC0C115EBE087
:10176000DE0721F461E086E098D887C0C034F8E055
:10177000DF0721F462E083E090D87FC0C03489E0C5
:10178000D80721F462E084E088D877C0C034EAE06A
:10179000DE0721F462E085E080D86FC0C039F8E050
:1017A000DF0721F464E083E078D867C0C03989E0BE
:1017B000D80721F464E084E070D85FC0C039EAE063
:1017C000DE0721F464E085E068D857C0C039FBE04B
:1017D000DF0721F464E086E060D84FC0C03C88E0B9
:1017E000D80721F468E083E058D847C0C03CE9E05E
:1017F000DE0721F468E084E050D83FC0C03AF8E04A
:10180000DF0721F460E183E048D837C0C03A89E0BF
:10181000D80721F460E184E040D82FC0C03AEAE064
:10182000DE0721F460E185E038D827C0C03AFBE04C
:10183000DF0721F460E186E030D81FC0C03B88E0BC
:10184000D80721F460E283E028D817C0C03BE9E064
:10185000DE0721F460E284E020D80FC0C038F4E055
:10186000DF0721F460E483E018D807C0C03A84E0C1
:10187000D80719F460E485E010D88D818F738D83CB
:10188000F80195818481892B9681911198E0892BAB
:101890008D83F801408151816281738100E814E8F1
:1018A0002EE130E0CE01E7DD9C8198609C839C8135
:1018B00090619C83DF91CF911F910F910895CF92FA
:1018C000DF92EF92FF920F931F93CF93DF93EC0180
:1018D000D901C801B695A7959795879548175907D7
:1018E0006A077B0778F46A017B01CC0CDD1CEE1CD7
:1018F000FF1CC901B801A70196010E94CA1C215012
:10190000310902C020E030E0832F8F708F832E8357
:10191000DF91CF911F910F91FF90EF90DF90CF90CB
:101920000895EF92FF920F931F93CF93DF93EC01F3
:101930007B01009709F498C1803C910529F460E18E
:1019400080E00E944D0490C18038914029F462E00B
:1019500080E00E944D0488C1C11581E0D80729F4B8
:1019600061E080E00E944D047FC1C038E3E0DE0703
:1019700029F461E081E00E944D0476C1C039F3E0B2
:10198000DF0729F461E082E00E944D046DC1C115BA
:1019900032E0D30729F462E081E00E944D0464C183
:1019A000C03482E0D80729F462E082E00E944D044E
:1019B0005BC1C032E3E0DE0729F464E082E00E940C
:1019C0004D0452C1C115F8E0DF0729F461E083E05E
:1019D0000E944D0449C1C11539E0D30729F461E0E3
:1019E00084E00E944D0440C1C1158AE0D80729F463
:1019F00061E085E00E944D0437C1C115EBE0DE07D0
:101A000029F461E086E00E944D042EC1C034F8E064
:101A1000DF0729F462E083E00E944D0425C1C03451
:101A200039E0D30729F462E084E00E944D041CC130
:101A3000C0348AE0D80729F462E085E00E944D04B2
:101A400013C1C039E8E0DE0729F464E083E00E94B6
:101A50004D040AC1C039F9E0DF0729F464E084E0ED
:101A60000E944D0401C1C0393AE0D30729F464E073
:101A700085E00E944D04F8C0C0398BE0D80729F4F6
:101A800064E086E00E944D04EFC0C03CE8E0DE0761
:101A900029F468E083E00E944D04E6C0C03CF9E010
:101AA000DF0729F468E084E00E944D04DDC0C03AFD
:101AB00038E0D30769F460E183E00E944D04E0EA76
:101AC000F8E084818F7E8483F701248122504AC00C
:101AD000C03AF9E0DF0729F460E184E00E944D0498
:101AE000C3C0C03A3AE0D30729F460E185E00E9420
:101AF0004D04BAC0C03A8BE0D80729F460E186E013
:101B00000E944D04B1C0C03BE8E0DE0729F460E26A
:101B100083E00E944D04A8C0C03BF9E0DF0729F430
:101B200060E284E00E944D049FC0C03834E0D307D7
:101B300029F460E483E00E944D0496C0C03A84E03A
:101B4000D80729F460E485E00E944D048DC08C81A3
:101B50008F7E8C83FB0124812250CE01C03AF8E0B5
:101B6000DF0731F480914E0684FD86C011E185C007
:101B7000803B38E0930779F0803AE9E09E0731F442
:101B800030916E0634FD7CC019E110C0803BF9E055
:101B90009F07A9F001C015E1803A3AE0930731F4BC
:101BA00080918E0684FD6EC011E20CC0803A9B408D
:101BB00049F48091AE0684FD04C019E203C01DE122
:101BC00001C01DE2E12FE695E695E69530E2E39F40
:101BD000F0011124FA5F177081E090E0012E02C03D
:101BE000880F991F0A94E2F78183223010F040E0B9
:101BF00001C040E4DF015096A10FB11D3FB7F8943A
:101C00002C9127702C939C91942B9C933FBF8583A0
:101C10008D81806C8D83F70184818D7F813021F4EB
:101C20008D8182608D8303C08D818D7F8D83F701CF
:101C30008581882321F08D8184608D8303C08D810F
:101C40008B7F8D83F701408151816281738100E830
:101C500014E82EE130E0CE0132DE8C8188608C8386
:101C60008C8180618C8310C08C818F7E8C83F70186
:101C700024812250CE017CCF15E180EA98E086CF06
:101C80001DE194CF15E29ECFDF91CF911F910F916F
:101C9000FF90EF900895FC010396818392832FEFCC
:101CA0003FEF2383348385839683878390871082D5
:101CB0000895FC01108611860895CF93DF939C014F
:101CC000FB01DC011196CD91DC911297C283D38385
:101CD0008C819D81848395838C819D81DC0112960A
:101CE0006D937C9313976C837D8320873187F901F3
:101CF00080818F5F8083DF91CF910895CF93DF93B1
:101D0000EB01488159814F3F2FEF520721F4FC012D
:101D1000A781B0850DC0DC01139601C0DF011296CA
:101D2000ED91FC9113972081318142175307B0F751
:101D30001296ED91FC911397EA83FB83C483D583BC
:101D4000AC83BD831296CD93DC93139788879987D4
:101D5000FC0120812F5F2083DF91CF910895CF93E5
:101D6000DF93FC01A085B185C281D38184819581F7
:101D70008C839D83C481D581828193818A839B8357
:101D800011968D919C911297E817F90731F484818F
:101D9000958111968D939C931297108611868C9144
:101DA00081508C93DF91CF9108950F931F938B01F6
:101DB00071E1FC017083319762E26083319723E324
:101DC0002083012E000C220B330B319700833197B7
:101DD00010833197208331971082319720E8208338
:101DE00031971082319722E02083319723E02083BE
:101DF000319724E02083319725E02083319726E036
:101E00002083319727E02083319728E02083319782
:101E100029E02083319720E1208331977083319727
:101E200022E12083319723E12083319724E120832D
:101E3000319725E12083319726E12083319727E1EF
:101E40002083319728E12083319729E1208331973E
:101E500020E22083319721E22083319760833197FC
:101E600023E220833197408331975083319726E2D4
:101E70002083319727E22083319728E2208331970E
:101E800029E22083319720E32083319721E32083C7
:101E900087971F910F910895F894E0E7F0E0838110
:101EA0008A7F8383E0E0F8E080E09AEF86A397A33F
:101EB00091E09683A0EAB0E012968C91129781602F
:101EC00012968C9390837894A091AA22B091AB2221
:101ED0000D900DBE0D900EBEFF91EF91DF91CF9151
:101EE000BF91AF919F918F917F916F915F914F9132
:101EF0003F912F911F910F91FF90EF90DF90CF9026
:101F0000BF90AF909F908F907F906F905F904F9019
:101F10003F902F901F900F900FBE0F90089581E07B
:101F200008950F920FB6F8940F921F9211242F92DA
:101F30003F924F925F926F927F928F929F92AF9259
:101F4000BF92CF92DF92EF92FF920F931F932F9346
:101F50003F934F935F936F937F938F939F93AF9331
:101F6000BF93CF93DF93EF93FF93A091AA22B091F9
:101F7000AB220DB60D920EB60D920ED6A091AA22EE
:101F8000B091AB220D900DBE0D900EBEFF91EF9162
:101F9000DF91CF91BF91AF919F918F917F916F9181
:101FA0005F914F913F912F911F910F91FF90EF9073
:101FB000DF90CF90BF90AF909F908F907F906F9069
:101FC0005F904F903F902F901F900F900FBE0F90FB
:101FD00008950F920FB6F8940F921F9211242F922A
:101FE0003F924F925F926F927F928F929F92AF92A9
:101FF000BF92CF92DF92EF92FF920F931F932F9396
:102000003F934F935F936F937F938F939F93AF9380
:10201000BF93CF93DF93EF93FF93A091AA22B09148
:10202000AB220DB60D920EB60D924BD48111B4D5E4
:10203000A091AA22B091AB220D900DBE0D900EBEC4
:10204000FF91EF91DF91CF91BF91AF919F918F91D0
:102050007F916F915F914F913F912F911F910F91C0
:10206000FF90EF90DF90CF90BF90AF909F908F90B8
:102070007F906F905F904F903F902F901F900F90A8
:102080000FBE0F901895CF93DF93EC010AD4CE01C9
:102090000E94081DEC01E8D4CE01DF91CF91089594
:1020A000CF93DF93009731F0EC01FBD3CE010E9478
:1020B000A01DDAD4DF91CF9108951F93CF93DF93C2
:1020C000EC01142F4C8D4423D9F1111116C050E0AE
:1020D0008C819D810E94291E2C8D8C819D81820F77
:1020E000911D8C839D832A813B818217930740F148
:1020F000888199818C839D8323C050E08E819F814C
:102100000E94291E8C8D90E09195819591092E81D8
:102110003F81280F391F2E833F834881598124171F
:10212000350730F42A813B81820F931F8E839F8372
:10213000123031F48A8D882319F08A8D81508A8F6C
:102140008A8D8F5F8A8F80E0DF91CF911F910895F4
:10215000FC01448D4423A9F050E026813781240FEF
:10216000351F26833783828193812817390720F012
:102170008081918186839783CB01668177810C94DE
:10218000291E08950F931F93CF93DF93EC010FB691
:10219000F8940F928E8D1816ACF48989811105C0C0
:1021A00011C08989811104C00DC08E010F5E1F4FBF
:1021B000C80193D5811113D68E8D81508E8F8E8D4F
:1021C00018167CF38FEF8E8F0F900FBE0FB6F8941A
:1021D0000F928D8D1816ACF48885811105C011C041
:1021E0008885811104C00DC08E01085F1F4FC80192
:1021F00074D58111F4D58D8D81508D8F8D8D1816EC
:102200007CF38FEF8D8F0F900FBEDF91CF911F91D9
:102210000F910895CF93DF93EC010FB6F8940F92CE
:10222000488159812C8D30E07B8D729FC001739F56
:10223000900D1124FA01E80FF91FEA83FB831A8E2F
:102240004C835D83821B930B840F951F8E839F832A
:102250008FEF8D8F8E8F61110AC08885882369F07A
:10226000CE0108963AD5813041F45BDE06C0CE013E
:10227000089611DDCE0141960EDD0F900FBE81E074
:10228000DF91CF9108950F931F93CF93DF93082F82
:10229000162F6623A9F0869FC00111248096F3DED5
:1022A000EC01009721F412C0C883D98303C04F9674
:1022B000888399830B8F1C8F61E0CE01ABDF06C052
:1022C0008FE190E0E0DEEC01892B71F7CE01DF9128
:1022D000CF911F910F910895AF92BF92CF92DF924D
:1022E000EF92FF920F931F93CF93DF93CDB7DEB79B
:1022F0002597CDBFDEBF8C016B014C835D83A22E81
:10230000B12C7C0188E0E80EF11C0FB6F8940F9216
:10231000F801928D838D981718F0F2E0AF1215C076
:102320004A2DB601C801C9DEF8019189992339F017
:10233000C8014196D2D4813021F4F3DD02C081116D
:10234000F0DD0F900FBE81E046C08C819D81892B0E
:1023500021F40F900FBE80E03EC0B11005C0CE0149
:10236000019601D5BB24B3940F900FBE9AD20FB63D
:10237000F8940F92F801858D8F3F09F4158EF801BE
:10238000868D8F3F09F4168E0F900FBEBE016C5FD5
:102390007F4FCE010196F2D4811119C00FB6F89487
:1023A0000F92F801928D0F900FBE838D98130BC082
:1023B0006C817D81C7015DD4C801E4DE55D38111F4
:1023C000A4CFAFDDA2CFC801DDDE4ED39ECFC801C2
:1023D000D9DE4AD380E02596CDBFDEBFDF91CF9115
:1023E0001F910F91FF90EF90DF90CF90BF90AF9033
:1023F00008950F931F93CF93DF93FA01DC015A9650
:102400005C915A975B963C91531710F02230D9F4A7
:10241000422F8F01EC0151DE8E8D8F3F79F4898937
:10242000882399F0CE01419658D4882381F0011574
:10243000110579F081E0F80180830CC08E8D8F5FEB
:102440008E8F81E007C080E005C081E003C081E09D
:1024500001C081E0DF91CF911F910F910895AF925C
:10246000BF92CF92DF92EF92FF920F931F93CF9381
:10247000DF93CDB7DEB72597CDBFDEBF8C016B01F3
:102480004C835D83A22EB12C7C0181E1E80EF11C0E
:102490000FB6F8940F92F801828D882321F1E6801F
:1024A000F780B601C80154DEA1100EC0F801828D7C
:1024B0008150828F8085882391F0C80108960DD4C1
:1024C000813069F42EDD0BC0F801E682F782818944
:1024D000882329F0C801419600D4811122DD0F9094
:1024E0000FBE81E045C08C819D81892B21F40F9026
:1024F0000FBE80E03DC0B11005C0CE01019633D4BF
:10250000BB24B3940F900FBECCD10FB6F8940F92AA
:10251000F801858D8F3F09F4158EF801868D8F3F68
:1025200009F4168E0F900FBEBE016C5F7F4FCE0177
:10253000019624D4811118C00FB6F8940F92F801B7
:10254000828D0F900FBE81110BC06C817D81C70100
:1025500090D3C80117DE88D281119ACFE2DC98CFE0
:10256000C80110DE81D294CFC8010CDE7DD280E09C
:102570002596CDBFDEBFDF91CF911F910F91FF90C8
:10258000EF90DF90CF90BF90AF900895CF93DF93FF
:10259000EC010FB6F8940F928D8D8F3F09F41D8ECC
:1025A0008E8D8F3F09F41E8E0F900FBE8A8D811184
:1025B00003C0CE01419677D3CE01E4DDDF91CF9108
:1025C0000895CDE7D2E288818230F0F3AADCFBCF18
:1025D000CF93DF93EC01E091AA22F091AB228283AA
:1025E000938380915B2290915C22C817D90760F495
:1025F0006091AA227091AB2280916722909168220B
:102600006E5F7F4F7BDB16C06091AA227091AB2278
:102610008091692290916A226E5F7F4F6FDB80917B
:10262000532290915422C817D90720F4C093532203
:10263000D0935422DF91CF9108954F925F926F9281
:102640007F928F929F92AF92BF92CF92DF92EF9242
:10265000FF920F931F93CF93DF934C01EB015A012D
:102660002901C114D10431F4CA010DDD6C01892B9B
:1026700009F4D2C086E290E006DD3C01009779F0D3
:10268000FC01C78AD08EF1E0AF1AB108CA0CDB1C7E
:102690008881F301818F8881811104C013C0C60134
:1026A000FFDCBAC0D3015A96FE0131969E01285F25
:1026B0003F4FEF0181918D938881882319F02E1768
:1026C0003F07B9F7F30110A2102F053008F014E00E
:1026D000F301168BE3012296CE01EBDAC3010C96CF
:1026E000E8DAF3016086718685E090E0811B91094C
:1026F00084879587628A738A11A212A213A214A2F8
:1027000015A2A201B401C60150DBF30180839183BD
:10271000E114F10419F0F701608271820FB6F894A8
:102720000F9280915D228F5F80935D228091AA221B
:102730009091AB22892B91F56092AA227092AB22E4
:1027400080915D228130C9F50F2EFDE7EF2EF2E278
:10275000FF2EF02D0F2EFAEACF2EF2E2DF2EF02D13
:10276000C70199DAF9E0EF0EF11CEC14FD04C1F792
:1027700084E792E290DA8BE692E28DDA8EE592E2DD
:102780008ADA84E792E28093692290936A228BE648
:1027900092E280936722909368220FC08091592221
:1027A00081110BC0E091AA22F091AB228689081713
:1027B00020F06092AA227092AB22809155228F5F06
:1027C00080935522F301868990915A22981710F42C
:1027D00080935A2290E09C01220F331F220F331F57
:1027E000220F331F820F931FBE0183589D4D65DA60
:1027F0000F900FBE80915922882351F0E091AA22B8
:10280000F091AB228689801728F48BDB81E005C02C
:1028100081E003C081E001C08FEFDF91CF911F9174
:102820000F91FF90EF90DF90CF90BF90AF909F906F
:102830008F907F906F905F904F900895AF92BF926E
:10284000CF92DF92EF92FF920F93A12CB12CC12C6B
:10285000D12CE12CF12C00E020E030E045E550E007
:1028600066E170E281EE92E1E8DE813091F420D3FE
:10287000813079F4F8948FEF9FEF809353229093F7
:10288000542281E08093592210925B2210925C22A4
:1028900003DB0F91FF90EF90DF90CF90BF90AF9050
:1028A0000895809152228F5F8093522208950FB62F
:1028B000F8940F9280915B2290915C220F900FBE52
:1028C0000895DF92EF92FF920F931F93CF93DF93C0
:1028D000809152228111B3C080915B2290915C2241
:1028E000019680935B2290935C22E0905B22F090B3
:1028F0005C22E114F10499F58091692290916A2299
:1029000020916722309168222093692230936A22B5
:102910008093672290936822809156228F5F8093E4
:102920005622E0916922F0916A228081811107C0CC
:102930008FEF9FEF809353229093542210C0E09129
:102940006922F0916A220580F681E02D0680F781E8
:10295000E02D828193818093532290935422809121
:10296000532290915422E816F90610F4D12C4FC04E
:10297000D12CE0916922F0916A228081811107C0F7
:102980008FEF9FEF809353229093542240C0E091A9
:102990006922F0916A220580F681E02DC681D781F7
:1029A0008A819B81E816F90628F48093532290933C
:1029B00054222DC08E010E5F1F4FC801D0D98C89C3
:1029C0009D89892B19F0CE010C96C9D98E899091D9
:1029D0005A22981710F480935A2290E09C01220FFB
:1029E000331F220F331F220F331F820F931FB80193
:1029F00083589D4D62D9E091AA22F091AB229E8925
:102A00008689981708F4B5CFDD24D394B2CFE0912E
:102A1000AA22F091AB22868990E0FC01EE0FFF1F05
:102A2000EE0FFF1FEE0FFF1F8E0F9F1FFC01E358DD
:102A3000FD4D8081823048F0DD24D39406C0809122
:102A400058228F5F80935822D12C8091572288235F
:102A500011F0DD24D3948D2DDF91CF911F910F9133
:102A6000FF90EF90DF900895DF92EF92FF920F9327
:102A70001F93CF93DF930FB6F8940F928091522259
:102A80008150809352228091522281115DC08091A9
:102A90005D22811130C05BC0D7011596ED91FC918C
:102AA0001697C681D781CE010C9659D98E010E5F3B
:102AB0001F4FC80154D98E8990915A22981710F44B
:102AC00080935A2290E09C01220F331F220F331F64
:102AD000220F331F820F931FB80183589D4DEDD8ED
:102AE000E091AA22F091AB229E898689981758F02E
:102AF000D092572208C00F2EFEE5EF2EF2E2FF2EF5
:102B0000F02DDD24D394F70180818111C5CF809110
:102B10005822882391F080915822882371F0C1E0D7
:102B2000D0DE8111C093572280915822815080932A
:102B30005822809158228111F3CF80915722813001
:102B400029F4EFD981E003C080E001C080E00F905C
:102B50000FBEDF91CF911F910F91FF90EF90DF900B
:102B60000895CF93DF93EC01892B91F09ADE809149
:102B70005B2290915C22C80FD91F8091AA2290916C
:102B8000AB220296ECD8CE0123DD6EDF811101C0AD
:102B9000C8D9DF91CF91089580915222882321F0E6
:102BA00081E08093572208951092572280915A22F3
:102BB00090E0FC01EE0FFF1FEE0FFF1FEE0FFF1F57
:102BC0008E0F9F1FFC01E358FD4D8081811117C0BE
:102BD00080915A22815080935A2280915A2290E00B
:102BE000FC01EE0FFF1FEE0FFF1FEE0FFF1F8E0FFA
:102BF0009F1FFC01E358FD4D8081882349F380919C
:102C00005A2290E09C01220F331F220F331F220F04
:102C1000331F280F391FD901A358BD4D1196ED91CF
:102C2000FC9112970280F381E02D1196ED93FC93B5
:102C3000129720583D4DE217F30729F42281338182
:102C4000FD0121833283FC01EE0FFF1FEE0FFF1FFA
:102C5000EE0FFF1F8E0F9F1FFC01E358FD4D0180FB
:102C6000F281E02D868197818093AA229093AB22F6
:102C70000895CF93DF93EB016091AA227091AB226C
:102C8000645F7F4F3BD88091AA229091AB2202963D
:102C900066D880915B2290915C228C0F9D1F98DCFE
:102CA000DF91CF910895CF93DF93EB016091AA223A
:102CB0007091AB22645F7F4F00D88091AA229091DF
:102CC000AB2202964CD880915B2290915C228C0FB3
:102CD0009D1F7EDCDF91CF9108950F931F93CF93BB
:102CE000DF93DC011596ED91FC911697C681D78193
:102CF0008E01045F1F4FC80132D88091522281118A
:102D00001BC00A501109C8012AD88E8990915A22F5
:102D1000981710F480935A2290E09C01220F331FE1
:102D2000220F331F220F331F820F931FB8018358C6
:102D30009D4D0E945D0E05C0B8018EE592E20E9495
:102D40005D0EE091AA22F091AB229E8986898917B7
:102D500020F481E08093572201C080E0DF91CF9181
:102D60001F910F91089520915622FC0120832091FC
:102D70005B2230915C22218332830895CF93DF93CD
:102D8000FC010FB6F8940F9220915B2230915C22E7
:102D9000809156229081981729F08181928128177D
:102DA0003907A8F4A181B281EB0148815981C90199
:102DB0008A1B9B0B8417950760F4CF01A21BB30BF2
:102DC0004A0F5B1F48835983CEDF80E003C081E058
:102DD00001C081E00F900FBEDF91CF91089581E097
:102DE00080935722089580915922882331F0809151
:102DF0005222882321F080E0089581E0089582E046
:102E00000895FC0162837383808791874617570773
:102E100090F0421B530B8485958548175907E0F4C1
:102E2000BF016E5F7F4F8091B0229091B1220E94CE
:102E30007E0E80E008954217530718F46217730757
:102E400068F4BF016E5F7F4F8091B2229091B322F0
:102E50000E947E0E80E0089581E0089581E008954B
:102E60000FB6F8940F928091AE229091AF22892BE9
:102E7000E1F48DEB92E20E944B0E84EB92E20E9411
:102E80004B0E8DEB92E28093B2229093B32284EBAF
:102E900092E28093B0229093B12240E065E08AE014
:102EA000F2D98093AE229093AF220F900FBE089577
:102EB000AF92BF92CF92DF92EF92FF920F93D0DF4B
:102EC0008091AE229091AF22892B89F0A12CB12C58
:102ED000C12CD12CE12CF12C03E020E030E045E5C1
:102EE00050E06BE170E286E698E1A7DB01C080E08C
:102EF0000F91FF90EF90DF90CF90BF90AF9008952B
:102F00008F929F92BF92CF92DF92EF92FF920F9398
:102F10001F93CF93DF9361157105C9F06901B42E3A
:102F20007B014C0183E190E0AED8EC01892B89F064
:102F300097DF88829982EC86FD86BE86CF86D88A06
:102F4000098B1A8BCE0102960E94590E02C0C0E076
:102F5000D0E0CE01DF91CF911F910F91FF90EF90C4
:102F6000DF90CF90BF909F908F9008950F931F9305
:102F7000CF93DF93CDB7DEB72597CDBFDEBFE0910E
:102F8000AE22F091AF22309751F1D90169834A8383
:102F90005B838C839D836630D4F425DF823059F4C3
:102FA00020E0A801BE016F5F7F4F8091AE2290911B
:102FB000AF2292D915C020E040E050E0BE016F5F23
:102FC0007F4F8091AE229091AF2286D909C020E038
:102FD000AD01BE016F5F7F4FCF010BDA01C080E012
:102FE0002596CDBFDEBFDF91CF911F910F91089540
:102FF000AF92BF92CF92DF92EF92FF920F931F9307
:10300000CF93DF936C0153DC7C018091AC229091D3
:10301000AD22E816F90608F047C02FC00580F681FA
:10302000E02DA080B180C681D7818E010E5F1F4F39
:10303000C8010E94AF0EE989FA89CE0119958E85E3
:103040008130D9F48C859D858A0D9B1DA816B90603
:1030500060F48A839B83C887D987B8018091B222A4
:103060009091B3220E947E0E08C000E010E020E0A4
:1030700030E0A50160E0CE0179DFE091B222F0916D
:10308000B32280818111CACF8091B0229091B12268
:103090008093B2229093B322E093B022F093B122B6
:1030A00081E0F601808302C0F6011082E092AC223A
:1030B000F092AD22C701DF91CF911F910F91FF9048
:1030C000EF90DF90CF90BF90AF900895CF93DF93B4
:1030D00000D000D0CDB7DEB7CE0101965C01E82E5E
:1030E000FB2CE091B222F091B3228081882309F475
:1030F000B6C00580F681E02DC080D180D2DBC5014D
:1031000077DF8C018981811142C00C151D0580F18A
:10311000ABDCE091B222F091B3220580F681E02D84
:1031200086809780C40102960E94AF0ED4011E963D
:103130008C911E978130A1F41C966D917C911D9706
:103140006C0D7D1D9601A801C4015BDE813041F448
:1031500000E010E020E030E0A60160E0C40106DFFE
:10316000D4015196ED91FC915297C40119956AC012
:1031700040E0B601601B710B8091AE229091AF22AE
:1031800005DA72DC81115EC00E94910F5BC06CDCBD
:1031900059C0898188230CF455C0CC80DD80F601AC
:1031A00082859385892B21F0C60102960E94AF0E7D
:1031B000CE0106961DDFAC018981082E000C990B0B
:1031C000AA0BBB0B8A30910508F03CC0FC01882794
:1031D000E250FF4F8F4F00C42A813B81D6011C96DD
:1031E0006D917C911D97620F731FC6010ADE8130BD
:1031F00049F5D6015196ED91FC915297C60119956A
:10320000F60186858130F1F44A815B81848595855C
:10321000480F591F00E010E020E030E060E0C601F8
:10322000A5DE10C06A817B81D6011C966D937C93CC
:103230001D97640F751F9A01C601E3DD03C0C60127
:103240000E94501020E040E050E06E2D7F2D8091D4
:10325000AE229091AF2203D981119BCF42CF21DBC7
:10326000C501C6DE8C018981811191CFE091B02228
:10327000F091B12241E08081811140E0C12CD12C3C
:1032800078CFCF93DF93FC0120E030E0C62FD0E071
:10329000DE01022E02C0B595A7950A94E2F7A0FDC3
:1032A000508B2F5F3F4F31962830310589F740FF13
:1032B0000AC041FF03C0FC01658302C0FC016683B4
:1032C000FC01618302C0FC016283DF91CF9108950C
:1032D00043E050E061E080EE97E0D3DF43E050E070
:1032E00062E080EE97E0CDDF43E050E060E180E611
:1032F00096E0C7DF41E050E460E280E696E0C1DF9F
:1033000040E05BE160E280E896E0BBDF40E05BE14B
:1033100062E080EA96E0B5DF40E05BE164E080EAED
:1033200096E0AFDF43E050E062E080E696E0A9DFA0
:1033300043E050E068E080E696E0A3DF43E050E041
:1033400068E080EA96E09DDF43E050E061E080E6DF
:1033500096E097DF43E050E068E080E096E091DFA0
:1033600041E050E060E180E896E08BDF43E050E030
:1033700062E080E696E085DF43E050E068E080E6CA
:1033800096E07FDF40E050E064E080E696E079DFA1
:1033900043E050E060E180EA96E073DF40E050E017
:1033A00061E080E096E06DDF40E050E064E080E0C6
:1033B00096E067DF40E050E062E080E296E061DFA7
:1033C00043E050E068E080E496E05BDF40E050E0FE
:1033D00064E080E496E055DF43E050E068E080E69A
:1033E00096E04FDF40E050E064E080E696E049DFA1
:1033F00043E050E068E080E896E043DF40E050E0E2
:1034000064E080E896E03DCF08956150710981093C
:103410009109D9F708958091F7239091F823A0910D
:10342000F923B091FA230196A11DB11D8093F723D2
:103430009093F823A093F923B093FA23089500EE14
:1034400017E0EE24E394C0E2D6E06894DD24D2F8DD
:103450006894FF24F1F880912C2390912D238A30D9
:10346000910544F42091C6223091C7222C3241E0CC
:103470003407C4F0F801E6828AEF90E072DBF801CD
:10348000E582DE82FD8265ED7CED82E390E0BDDFCA
:10349000FE8210922C2310922D231092C62210929D
:1034A000C7220AC00197099738F42F5F3F4F209336
:1034B000C6223093C722DD8282E090E052DBCBCF80
:1034C000C0E0D2E06894FF24F2F800E312E0CE01FD
:1034D0000E9459079FB7F8948881806188839FBFB5
:1034E0008E8182FFFDCFFE82F801848195818093D9
:1034F000FB239093FC2385E090E033DBE8CFC0E032
:10350000D2E06894FF24F1F808E212E0CE010E94B4
:1035100059079FB7F8948881886088839FBF8E8100
:1035200081FFFDCFFE82F801848195818093FD2388
:103530009093FE2385E090E014DBE8CFC0E0D2E07A
:1035400011E0CE010E9459079FB7F89488818460EA
:1035500088839FBF8E8180FFFDCF1E838CA19DA19C
:103560008093FF239093002485E090E0FADAE9CF7E
:1035700080E1809385060F2EFAE0AF2EB12CF02D5E
:103580000F2EF3E2CF2EF0E2DF2EF02D0F2EF9EC0E
:10359000FF2EF02DCEE2D3E201E310E28091C622AD
:1035A0009091C722B501E3D17F936F93DF92CF92C1
:1035B0001F92FF92DF93CF935ED326E030E244E187
:1035C00060E0CE010E947F0680912D238F93809131
:1035D0002C238F931F930F931F92FF92DF93CF9310
:1035E0004AD326E030E240E060E0CE010E947F0650
:1035F00082E090E0B6DA8DB79EB740968DBF9EBF51
:10360000CDCFE0E4F6E0808181608083E0E0F8E007
:1036100085E0808386E1818388EE93E086A397A38B
:1036200087E791E080A791A70895EBDFE0EAF6E055
:10363000C0E0D8E06EE571E0A0E6B6E010E290E10F
:1036400041E050E022E830E0808581FD0CC08085BB
:1036500082FF09C028A739A716969C93169715963E
:103660001C931597F1CF808582FD0CC0808581FF6A
:1036700009C048A759A716961C93169715969C93B0
:103680001597E2CF808581FFDFCF808582FFDCCF79
:1036900068A779A715961C93159715969C9315976F
:1036A000D3CF1092A7088CE08093A6081092A308AD
:1036B00083E08093A50888E18093A4080895CF93C0
:1036C000DF93C8ECD2E280EA98E00E94350A8A30A3
:1036D00011F08993F8CF68EC72E2809114209091F8
:1036E0001520C0D2892B49F480912C2390912D2351
:1036F000019680932C2390932D23DF91CF910895F1
:10370000DEDF85E090E02DDAFBCF8F929F92AF92C3
:10371000BF92CF92DF92EF92FF920F931F93CF93BE
:10372000DF93CDB7DEB72B97CDBFDEBFD1DD87E00E
:103730008093A2000E943D046894EE24E4F8E09295
:1037400085066894FF24F3F8F0924506F09241064E
:1037500084E080934606809342060F2EF0E2CF2E3F
:10376000F6E0DF2EF02D02E0F6010183818399DF80
:103770006DE070E280EA98E00E944E0B11E0F601E5
:103780001183BE016F5F7F4F80E092E00E9450097D
:10379000AE01485F5F4F61E080E092E00E94AC09BB
:1037A0009A818B818F7880618B83892F817E8A8338
:1037B0001C820D8318871986BE016F5F7F4F80E0E2
:1037C00092E00E940009AE01485F5F4F61E080E037
:1037D00092E00E947309BE016F5F7F4F80E092E02C
:1037E0000E945009AE01485F5F4F62E080E092E0C6
:1037F0000E94AC099A818B818F7880618B83892F9D
:10380000817E8A831C820D831887F986BE016F5FD3
:103810007F4F80E092E00E940009AE01485F5F4F59
:1038200062E080E092E00E947309BE016F5F7F4F0B
:1038300080E092E00E945009AE01485F5F4F64E073
:1038400080E092E00E94AC099A818B818F78806140
:103850008B83892F817E8A831C820D831887E9865A
:10386000BE016F5F7F4F80E092E00E940009AE01D1
:10387000485F5F4F64E080E092E00E9473090E941D
:103880000B050BE01AE120E030E041E061E070E080
:1038900084E490E235DB4C01A12CB12CC12CD12C5D
:1038A000E12CF12C01E020E030E044EF51E06DE448
:1038B00070E28FE19AE10E941D1320E030E044EFB6
:1038C00051E06DE470E288EB9AE10E941D1320E064
:1038D00030E044EF51E06DE470E280E89BE10E944B
:1038E0001D1320E030E044EF51E06DE470E28EE91A
:1038F0009AE10E941D1320E030E044EF51E06DE4B6
:1039000070E28FE79AE10E941D1320E030E044EF5F
:1039100051E06DE470E285E19BE10E941D1320E01F
:1039200030E044EF51E06DE470E280E69AE10E94FD
:103930001D130E94571400E010E020E030E0AC01BD
:1039400061E0C40113DB0E941E1480E090E02B961E
:10395000CDBFDEBFDF91CF911F910F91FF90EF9010
:10396000DF90CF90BF90AF909F908F90089597FB7E
:10397000072E16F4009406D077FD08D035D007FC4A
:1039800005D03EF4909581959F4F0895709561956F
:103990007F4F0895A1E21A2EAA1BBB1BFD010DC08B
:1039A000AA1FBB1FEE1FFF1FA217B307E407F507EF
:1039B00020F0A21BB30BE40BF50B661F771F881FCB
:1039C000991F1A9469F760957095809590959B0161
:1039D000AC01BD01CF010895EE0FFF1F881F8BBF03
:1039E0000790F691E02D1994AA1BBB1B51E107C06B
:1039F000AA1FBB1FA617B70710F0A61BB70B881F7F
:103A0000991F5A95A9F780959095BC01CD0108950D
:103A10000F931F93CF93DF938230910510F482E0D0
:103A200090E0E0910F24F091102420E030E0A0E03D
:103A3000B0E0309719F1408151810281138148171C
:103A40005907C8F08417950769F4109731F012965A
:103A50000C93129713961C9327C000930F24109376
:103A6000102422C02115310519F04217530718F40C
:103A70009A01BD01EF01DF01F801DBCF211531050E
:103A8000F9F0281B390B2430310580F48A819B81A1
:103A90006115710521F0FB018283938304C080933B
:103AA0000F2490931024FE01329644C0FE01E20FD1
:103AB000F31F8193919322503109288339833AC0AF
:103AC00020910D2430910E24232B41F420910220CB
:103AD0003091032020930D2430930E242091002058
:103AE000309101202115310541F42DB73EB74091A9
:103AF000042050910520241B350BE0910D24F091FA
:103B00000E24E217F307A0F42E1B3F0B28173907EA
:103B100078F0AC014E5F5F4F2417350748F04E0F29
:103B20005F1F40930D2450930E248193919302C004
:103B3000E0E0F0E0CF01DF91CF911F910F91089568
:103B4000CF93DF93009709F481C0FC013297128272
:103B50001382A0910F24B0911024109781F420813A
:103B60003181820F931F20910D2430910E2428174C
:103B7000390751F5E0930D24F0930E2467C0ED0151
:103B800020E030E0CE17DF0740F44A815B819E01E0
:103B900041155105F1F0EA01F5CFC283D38340818D
:103BA0005181840F951FC817D90759F488819981CD
:103BB000840F951F0296808391838A819B818283E3
:103BC00093832115310529F4E0930F24F0931024F9
:103BD0003DC0E901EA83FB8349915991C40FD51F88
:103BE000EC17FD0761F480819181840F951F029687
:103BF000E90188839983828193818A839B83E0E0B2
:103C0000F0E012968D919C911397009719F0FD01A9
:103C1000DC01F7CF8D919C9111979D012E5F3F4F55
:103C2000820F931F20910D2430910E2428173907FD
:103C300069F4309729F410920F241092102402C0D6
:103C400012821382A0930D24B0930E24DF91CF91A2
:103C50000895FB01DC0102C001900D9241505040DB
:103C6000D8F70895FB01DC018D91019080190110B6
:103C7000D9F3990B08950F931F93CF93DF93CDB78B
:103C8000DEB72E97CDBFDEBF0E891F89888D998D37
:103C900026E02C8309831A8397FF02C080E090E816
:103CA00001978D839E83AE01445E5F4F6A8D7B8D4D
:103CB000CE01019616D04D815E8157FD0AC02F813D
:103CC0003885421753070CF49A01F801E20FF31FED
:103CD00010822E96CDBFDEBFDF91CF911F910F9145
:103CE00008952F923F924F925F926F927F928F92A0
:103CF0009F92AF92BF92CF92DF92EF92FF920F937B
:103D00001F93CF93DF93CDB7DEB72B97CDBFDEBF29
:103D10006C017B018A01FC0116821782838181FF7D
:103D2000BFC1CE0101963C01F6019381F70193FDDD
:103D3000859193FF81917F01882309F4ADC185327C
:103D400039F493FD859193FF81917F01853221F4B0
:103D5000B60190E0D3D1E8CF912C212C312CFFE19A
:103D6000F315D8F08B3279F038F4803279F0833261
:103D7000A1F4232D20611DC08D3261F0803369F4E0
:103D8000232D216016C0832D8260382EE32DE46040
:103D90003E2E2AC0F32DF8601DC037FC2DC020ED4B
:103DA000280F2A3040F08E32B9F436FC75C1232D2D
:103DB0002064322E19C036FE06C08AE0989E200D7F
:103DC0001124922E11C0EAE02E9E200D1124222EE5
:103DD000F32DF0623F2E08C08C3621F4832D8068CD
:103DE000382E02C0883641F4F70193FD859193FF88
:103DF00081917F018111B3CF982F9F7D955493308E
:103E000028F40C5F1F4F9FE399830DC0833631F078
:103E1000833771F0833509F055C020C0F8018081E7
:103E200089830E5F1F4F88248394912C530112C005
:103E30002801F2E04F0E511CF801A080B18036FE3F
:103E400003C0692D70E002C06FEF7FEFC5014BD159
:103E50004C018201F32DFF773F2E15C0280122E08F
:103E6000420E511CF801A080B18036FE03C0692DBE
:103E700070E002C06FEF7FEFC5012AD14C01F32D36
:103E8000F0683F2E820133FC19C0822D90E0881625
:103E90009906A0F4B60180E290E030D12A94F5CFE3
:103EA000F50137FC859137FE81915F01B60190E005
:103EB00025D121102A9421E0821A910881149104BD
:103EC00079F7E1C0843611F0893639F5F80137FE0B
:103ED00007C060817181828193810C5F1F4F08C090
:103EE00060817181072E000C880B990B0E5F1F4FAC
:103EF000F32DFF763F2E97FF09C090958095709522
:103F000061957F4F8F4F9F4FF0683F2E2AE030E042
:103F1000A30130D1882E861844C0853731F4232D73
:103F20002F7EB22E2AE030E025C0932D997FB92E46
:103F30008F36C1F018F4883579F0AEC0803719F0AB
:103F4000883721F0A9C0E92FE061BE2EB4FE0DC074
:103F5000FB2DF460BF2E09C034FE0AC0292F266055
:103F6000B22E06C028E030E005C020E130E002C0FB
:103F700020E132E0F801B7FE07C0608171818281E3
:103F800093810C5F1F4F06C06081718180E090E0DB
:103F90000E5F1F4FA301EED0882E8618FB2DFF77F2
:103FA0003F2E36FE0DC0232D2E7FA22E891458F4ED
:103FB00034FE0BC032FC09C0832D8E7EA82E05C0B6
:103FC000B82CA32C03C0B82C01C0B92CA4FE0FC080
:103FD000FE01E80DF11D8081803321F49A2D997E38
:103FE000A92E09C0A2FE06C0B394B39404C08A2DC2
:103FF000867809F0B394A3FC10C0A0FE06C0B214EA
:1040000080F4280C922C9B180DC0B21458F4B60101
:1040100080E290E073D0B394F8CFB21418F42B1868
:1040200002C0982C212CA4FE0FC0B60180E390E0C2
:1040300065D0A2FE16C0A1FC03C088E790E002C0D4
:1040400088E590E0B6010CC08A2D867851F0A1FE7B
:1040500002C08BE201C080E2A7FC8DE2B60190E0D5
:104060004DD0891430F4B60180E390E047D09A94A3
:10407000F8CF8A94F301E80DF11D8081B60190E03C
:104080003DD08110F6CF222009F44ECEB60180E259
:1040900090E034D02A94F7CFF6018681978102C050
:1040A0008FEF9FEF2B96CDBFDEBFDF91CF911F919A
:1040B0000F91FF90EF90DF90CF90BF90AF909F90C7
:1040C0008F907F906F905F904F903F902F900895CA
:1040D000FC010590615070400110D8F780959095D3
:1040E0008E0F9F1F0895FC016150704001900110D8
:1040F000D8F7809590958E0F9F1F08950F931F936B
:10410000CF93DF93FB01238121FD03C08FEF9FEF4E
:104110002CC022FF16C04681578124813581421769
:10412000530744F4A081B1819D012F5F3F4F20834D
:1041300031838C93268137812F5F3F4F26833783CE
:1041400014C08B01EC01FB010084F185E02D199571
:10415000892BE1F6D80116968D919C9117970196BF
:1041600016968D939C931797CE01DF91CF911F9157
:104170000F910895FA01AA27283051F1203181F1D9
:10418000E8946F936E7F6E5F7F4F8F4F9F4FAF4F5F
:10419000B1E03ED0B4E03CD0670F781F891F9A1F72
:1041A000A11D680F791F8A1F911DA11D6A0F711D26
:1041B000811D911DA11D20D009F468943F912AE032
:1041C000269F11243019305D3193DEF6CF0108951A
:1041D000462F4770405D4193B3E00FD0C9F7F6CF4B
:1041E000462F4F70405D4A3318F0495D31FD405213
:1041F000419302D0A9F7EACFB4E0A69597958795A9
:1042000077956795BA95C9F7009761057105089587
:104210009B01AC010A2E0694579547953795279533
:10422000BA95C9F7620F731F841F951FA01D0895CB
:04423000F894FFCF30
:104234000000112420000010020607207D802500C4
:10424400000300004A2049444C4500546D72205339
:1042540076630057616974696E67203A2025336478
:10426400004A756D6C6168204F72616E67203A2058
:0E427400253364007450696E6700696E200087
:00000001FF
