:1000000050C200006FC200006DC200006BC2000051
:1000100069C2000067C2000065C2000063C2000040
:1000200061C200005FC200005DC200005BC2000050
:1000300059C2000057C200000C94490D53C2000081
:1000400051C200004FC200004DC200004BC2000070
:1000500049C2000047C2000045C2000043C2000080
:1000600041C200003FC200003DC200003BC2000090
:1000700039C2000037C2000035C2000033C20000A0
:1000800031C200002FC200002DC200002BC20000B0
:1000900029C2000027C2000025C20000D6C7000008
:1000A0000C9457080C9489080C94BB081BC20000E0
:1000B00019C2000017C2000015C2000013C20000E0
:1000C00011C200000FC200000DC200000BC20000F0
:1000D00009C2000007C2000005C2000003C2000000
:1000E00001C20000FFC10000FDC10000FBC1000013
:1000F000F9C10000F7C10000F5C10000F3C1000024
:10010000F1C10000EFC10000EDC10000EBC1000033
:10011000E9C10000E7C10000E5C10000CEC6000053
:10012000FEC600002EC700005EC70000DBC1000055
:10013000D9C10000D7C10000D5C10000D3C1000063
:10014000D1C10000CFC10000CDC10000CBC1000073
:10015000C9C10000C7C10000C5C10000C3C1000083
:10016000C1C10000BFC10000BDC10000BBC1000093
:10017000B9C10000B7C10000B5C10000B3C10000A3
:10018000B1C10000AFC10000ADC10000ABC10000B3
:10019000A9C10000A7C10000A5C10000A3C10000C3
:1001A000A1C100009FC100009DC100009BC10000D3
:1001B00099C1000097C1000095C1000093C10000E3
:1001C00091C100008FC100008DC100008BC10000F3
:1001D00089C1000087C1000085C1000083C1000003
:1001E00081C100007FC100007DC100007BC1000013
:1001F00079C1000077C1000075C100006516651661
:1002000065169B168B169816651665169B168B162B
:10021000000000000000002020202020002050507E
:1002200050000000005050F850F850502078A07056
:1002300028F020C0C810204098186090A040A890D6
:100240006860204000000000102040404020104026
:10025000201010102040005020F8205000002020D6
:10026000F820200000000000602040000000F8009E
:1002700000000000000000606000081020408000C6
:10028000708898A8C888702060202020207070880E
:1002900008102040F8F81020100888701030509096
:1002A000F81010F880F008088870304080F08888D6
:1002B00070F80810204040407088887088887070FE
:1002C00088887808106000606000606000006060EE
:1002D00000602040081020402010080000F800F8BE
:1002E00000008040201020408070880810200020EE
:1002F00070880868A8A87070888888F88888F0884E
:1003000088F08888F070888080808870E090888885
:100310008890E0F88080F08080F8F88080E080802D
:100320008070888080988870888888F8888888702D
:10033000202020202070381010101090608890A08D
:10034000C0A09088808080808080F888D8A8888825
:1003500088888888C8A898888870888888888870DD
:10036000F08888F080808070888888A89068F088FD
:1003700088F0A09088788080700808F0F82020200D
:100380002020208888888888887088888888885075
:1003900020888888A8A8D88888885020508888888D
:1003A000885020202020F80810204080F838202095
:1003B0002020203800804020100800E0202020204D
:1003C00020E020508800000000000000000000F83D
:1003D00040201000000000000070087888788080BD
:1003E000B0C88888F000007080808870080868981D
:1003F00088887800007088F88070304840E040407D
:1004000040000078887808308080B0C888888820CC
:100410000060202020701000301010906040404894
:1004200050605048602020202020700000D0A8A8F4
:1004300088880000B0C88888880000708888887024
:100440000000F088F08080000068987808080000BC
:10045000B0C8808080000070807008F04040E040AC
:100460004048300000888888986800008888885054
:100470002000008888A8A8500000885020508800DC
:100480000088887808700000F8102040F8102020BC
:10049000402020102020202020202040202010203C
:1004A000204011241FBECFEFCDBFDFE5DEBF00E04F
:1004B0000CBF10E2A0E0B0E2E6E8FBE300E00BBF17
:1004C00002C007900D92A035B107D9F723E2A0E54D
:1004D000B0E201C01D92A93AB207E1F70E94931859
:1004E0000C94C11D8DCDBF92CF92DF92EF92FF92FF
:1004F0000F931F93CF93DF931F92CDB7DEB7E0E04A
:10050000F6E088E0868385830F2EFBE2BF2EF02D78
:10051000B98280EA99E009D4C12CD12C760100E49B
:1005200012E42FE030E043E0BE016F5F7F4F80EACE
:1005300099E02AD400E616E0FF24F394F801F6824D
:10054000B982BE016F5F7F4F80EA99E037D4F8012E
:10055000F682E0EAF9E0818185FFFDCF80EA8093B1
:10056000A009E0EAF9E0818186FFFDCFE0EAF9E049
:1005700080E481838081BE016F5F7F4F80EA99E0D4
:1005800033D48BE28983BE016F5F7F4F80EA99E0AD
:1005900015D481E080936606E0EAF9E0818185FF69
:1005A000FDCF86EA8093A009E0EAF9E0818186FF29
:1005B000FDCFE0EAF9E080E481838081BE016F5FD6
:1005C0007F4F80EA99E010D48BE28983BE016F5F90
:1005D0007F4F80EA99E0F2D381E080936606E0EAFB
:1005E000F9E0818185FFFDCF88EC8093A009E0EAE6
:1005F000F9E0818186FFFDCFE0EAF9E080E48183C4
:100600008081BE016F5F7F4F80EA99E0EDD38BE27E
:100610008983BE016F5F7F4F80EA99E0CFD381E08D
:1006200080936606E0EAF9E0818185FFFDCF82EAEA
:100630008093A009E0EAF9E0818186FFFDCFE0EA3E
:10064000F9E080E481838081BE016F5F7F4F80EAA3
:1006500099E0CAD38BE28983BE016F5F7F4F80EA46
:1006600099E0ACD381E080936606E0EAF9E081810D
:1006700085FFFDCF8FE28093A009E0EAF9E0818158
:1006800086FFFDCFE0EAF9E080E481838081BE014E
:100690006F5F7F4F80EA99E0A7D38BE28983BE0129
:1006A0006F5F7F4F80EA99E089D381E0809366068F
:1006B000E0EAF9E0818185FFFDCF88EF8093A00912
:1006C000E0EAF9E0818186FFFDCFE0EAF9E080E42D
:1006D00081838081BE016F5F7F4F80EA99E084D380
:1006E0008BE28983BE016F5F7F4F80EA99E066D31A
:1006F00081E080936606E0EAF9E0818185FFFDCF25
:100700001092A009E0EAF9E0818186FFFDCFE0EADE
:10071000F9E080E481838081BE016F5F7F4F80EAD2
:1007200099E062D38BE28983BE016F5F7F4F80EADD
:1007300099E044D381E080936606E0EAF9E08181A4
:1007400085FFFDCF81E28093A009E0EAF9E0818195
:1007500086FFFDCFE0EAF9E080E481838081BE017D
:100760006F5F7F4F80EA99E03FD38BE28983BE01C0
:100770006F5F7F4F80EA99E021D381E08093660626
:10078000E0EAF9E0818185FFFDCF81E88093A0094F
:10079000E0EAF9E0818186FFFDCFE0EAF9E080E45C
:1007A00081838081BE016F5F7F4F80EA99E01CD317
:1007B0008BE28983BE016F5F7F4F80EA99E0FED2B2
:1007C00081E080936606E0EAF9E0818185FFFDCF54
:1007D00081E28093A009E0EAF9E0818186FFFDCF04
:1007E000E0EAF9E080E481838081BE016F5F7F4FA2
:1007F00080EA99E0F9D28BE28983BE016F5F7F4F77
:1008000080EA99E0DBD281E080936606E0EAF9E0D5
:10081000818185FFFDCF8FEA8093A009E0EAF9E0AE
:10082000818186FFFDCFE0EAF9E080E48183808169
:10083000BE016F5F7F4F80EA99E0D6D20F90DF91C3
:10084000CF911F910F91FF90EF90DF90CF90BF90CD
:1008500008959FB7F894E82FF0E0E059FF4F6095B6
:100860008081682360839FBF08959FB7F894E82F25
:10087000F0E0E059FF4F8081682B60839FBF0895AF
:10088000FF920F931F93CF93DF931F92CDB7DEB7E5
:10089000082FF62E142F22D10F70006B8BE2898364
:1008A000BE016F5F7F4F80EA99E088D281E080933C
:1008B0006606E0EAF9E0918195FFFDCF0093A0097B
:1008C000E0EAF9E0818186FFFDCFE0EAF9E080E42B
:1008D00081838081BE016F5F7F4F80EA99E084D27F
:1008E0000F2D0F7702950F7000618BE28983BE0197
:1008F0006F5F7F4F80EA99E061D281E08093660666
:10090000E0EAF9E0818185FFFDCF0093A009E0EAEC
:10091000F9E0818186FFFDCFE0EAF9E080E48183A0
:100920008081BE016F5F7F4F80EA99E05DD20F2D1D
:100930000F708BE28983BE016F5F7F4F80EA99E081
:100940003DD281E080936606E0EAF9E0818185FF8F
:10095000FDCF0093A009E0EAF9E0818186FFFDCF99
:10096000E0EAF9E080E481838081BE016F5F7F4F20
:1009700080EA99E039D28BE28983BE016F5F7F4FB5
:1009800080EA99E01BD281E080936506E0EAF9E015
:10099000818185FFFDCF1093A009E0EAF9E0818114
:1009A00086FFFDCFE0EAF9E080E48183808181E089
:1009B00080936606BE016F5F7F4F80EA99E014D294
:1009C0000F90DF91CF911F910F91FF9008950F939A
:1009D0001F93CF93DF931F92CDB7DEB780E590E2F0
:1009E00078D081DD8BE28983BE016F5F7F4F80EA23
:1009F00099E0E4D181E080936606E0EAF9E0818144
:100A000085FFFDCF80E48093A009E0EAF9E08181D1
:100A100086FFFDCFE0EAF9E080E481838081BE01BA
:100A20006F5F7F4F80EA99E0DFD100E00AC040E0CD
:100A3000612F802F25DF1F5F1038C9F70F5F04304B
:100A400011F010E0F4CF0F90DF91CF911F910F9133
:100A50000895FF920F931F93CF93DF9388238CF118
:100A6000603278F5D42FC82FF62EF694F694F694CB
:100A70002F2D30E0319521953109220F331F220FA0
:100A8000331F220F331F260F311D61E070E08B01F1
:100A900002C0000F111F2A95E2F7682F8F2D2CD06E
:100AA000D13021F028F0D23039F007C0802B05C0BA
:100AB000602F6095862301C08027482F6C2F8F2DD3
:100AC000DFDEDF91CF911F910F91FF90089514C049
:100AD00008958093502290935122089520E8829F98
:100AE000C0011124860F911DE0915022F0915122F6
:100AF000E80FF91F4083089520E8829FC001112468
:100B0000860F911DE0915022F0915122E80FF91FBC
:100B100080810895FF920F931F93CF93DF93E42F6B
:100B2000F0E0E80FF11DE138F1051CF0C0E84C2FB2
:100B3000481B442309F453C0D62FD695D695D69595
:100B4000ED2FF0E0F195E195F109EE0FFF1FEE0FAB
:100B5000FF1FEE0FFF1FDF01A60FB11DBD01E1E07A
:100B6000F0E0DF0102C0AA0FBB1F6A95E2F7FA2E80
:100B7000213021F098F0223019F131C0C42F1FEF3D
:100B8000180F012F0C0F602F8D2FA1DF482F4F2939
:100B9000602F8D2F75DEC150A1F721C0C42F1FEF2C
:100BA000180FFA2EF094012F0C0F602F8D2F8FDF6E
:100BB000482F4F21602F8D2F63DEC150A1F70FC04A
:100BC000C42F1FEF180F012F0C0F602F8D2F7FDF09
:100BD000482F4F25602F8D2F53DEC150A1F7DF9195
:100BE000CF911F910F91FF900895FF920F931F9344
:100BF000CF93DF93222369F0C22FF42E182FDFEF5B
:100C0000D60F6D2F6C0F202F4F2D812F83DFC150FA
:100C1000C1F7DF91CF911F910F91FF900895AF928F
:100C2000BF92CF92DF92EF92FF920F931F93CF93D9
:100C3000DF93C82FE62EB42E690100E0F90124816C
:100C400043816B2D8E2DD1DFF6018081811139C05A
:100C50008381282F269526952695877009F02F5F8A
:100C6000F601A4802A9D900111248C2F90E04581EB
:100C7000841B9109289FA001299F500D389F500D7A
:100C8000112401811281040F151FF601F380FF204A
:100C9000A1F0D0E0C0E08C2F8E0D9C2F977021F436
:100CA000F801D4910F5F1F4FDD231CF441E06B2D41
:100CB000D0DEDD0FCF5FCF11EECFB394AA94A11099
:100CC000E4CFDF91CF911F910F91FF90EF90DF90D4
:100CD000CF90BF90AF900895DF92EF92FF920F9365
:100CE0001F93CF93DF93042F7901EC01162FD62E9B
:100CF00089918A3031F4F70184818F5F080F1D2DAF
:100D000009C08D3039F09701402F612F88DFF7013E
:100D10008381180F88818111EBCFDF91CF911F91D3
:100D20000F91FF90EF90DF900895803A28E09207AE
:100D300021F460E183E08DCD0895803B28E09207A7
:100D400021F460E283E085CD0895803A29E092079E
:100D500021F460E184E07DCD0895803B29E0920795
:100D600021F460E284E075CD0895803A2AE092078C
:100D700021F460E185E06DCD0895803A9B4019F43F
:100D800060E186E066CD08950F931F93CF93DF93C4
:100D900000D000D0CDB7DEB709831A832B833C8304
:100DA0004D831E82BE016F5F7F4F38D32696CDBF25
:100DB000DEBFDF91CF911F910F910895FB018081DC
:100DC000E82FE695E695E69540E2E49FF0011124D0
:100DD000FA5F877021E030E0A90102C0440F551F7F
:100DE0008A95E2F746830895FB018081E82FE69516
:100DF000E695E69540E2E49FF0011124FA5F8770E2
:100E000021E030E0A90102C0440F551F8A95E2F7A6
:100E100045830895811522E0920761F48091532261
:100E200091E0980F90935322811112C062E081E00B
:100E300010CD08958034924059F48091522291E06F
:100E4000980F90935222811103C062E082E001CD9D
:100E50000895811522E0920759F480915322815020
:100E600080935322811111C062E081E0FECC08958D
:100E70008034924051F480915222815080935222CA
:100E8000811103C062E082E0F0CC08951F93CF93FC
:100E9000DF93EC011FB7F894BDDF88818160888300
:100EA0001FBF9FB7F894EBE9F3E281818F5F8183E5
:100EB0009FBFDF91CF911F9108951F920F920FB6A0
:100EC0000F9211240BB60F922F933F934F935F9382
:100ED0006F937F938F939F93AF93BF93EF93FF9302
:100EE0004091240250912502E091A323F091A42384
:100EF00061E080E092E01995FF91EF91BF91AF9191
:100F00009F918F917F916F915F914F913F912F9121
:100F10000F900BBE0F900FBE0F901F9018951F9251
:100F20000F920FB60F9211240BB60F922F933F938F
:100F30004F935F936F937F938F939F93AF93BF93E1
:100F4000EF93FF9340912C0250912D02E091A32347
:100F5000F091A42362E080E092E01995FF91EF9177
:100F6000BF91AF919F918F917F916F915F914F91C1
:100F70003F912F910F900BBE0F900FBE0F901F90BF
:100F800018951F920F920FB60F9211240BB60F9265
:100F90002F933F934F935F936F937F938F939F9381
:100FA000AF93BF93EF93FF9340913402509135027A
:100FB000E091A323F091A42364E080E092E01995EE
:100FC000FF91EF91BF91AF919F918F917F916F9121
:100FD0005F914F913F912F910F900BBE0F900FBEDD
:100FE0000F901F9018951F920F920FB60F92112419
:100FF0000BB60F922F933F934F935F936F937F9313
:101000008F939F93AF93BF93EF93FF9340913C02D5
:1010100050913D02E091A323F091A42368E080E089
:1010200092E01995FF91EF91BF91AF919F918F91B0
:101030007F916F915F914F913F912F910F900BBED8
:101040000F900FBE0F901F9018951F920F920FB622
:101050000F9211240BB60F922F933F934F935F93F0
:101060006F937F938F939F93AF93BF93EF93FF9370
:101070004091640250916502E091A123F091A22376
:1010800061E080E492E01995FF91EF91BF91AF91FB
:101090009F918F917F916F915F914F913F912F9190
:1010A0000F900BBE0F900FBE0F901F9018951F92C0
:1010B0000F920FB60F9211240BB60F922F933F93FE
:1010C0004F935F936F937F938F939F93AF93BF9350
:1010D000EF93FF9340916C0250916D02E091A12338
:1010E000F091A22362E080E492E01995FF91EF91E4
:1010F000BF91AF919F918F917F916F915F914F9130
:101100003F912F910F900BBE0F900FBE0F901F902D
:1011100018951F920F920FB60F9211240BB60F92D3
:101120002F933F934F935F936F937F938F939F93EF
:10113000AF93BF93EF93FF93409174025091750268
:10114000E091A123F091A22364E080E492E019955C
:10115000FF91EF91BF91AF919F918F917F916F918F
:101160005F914F913F912F910F900BBE0F900FBE4B
:101170000F901F9018951F920F920FB60F92112487
:101180000BB60F922F933F934F935F936F937F9381
:101190008F939F93AF93BF93EF93FF9340917C0204
:1011A00050917D02E091A123F091A22368E080E4B8
:1011B00092E01995FF91EF91BF91AF919F918F911F
:1011C0007F916F915F914F913F912F910F900BBE47
:1011D0000F900FBE0F901F901895DF92EF92FF9225
:1011E0000F931F93CF93DF93EC018B01C11522E086
:1011F000D20771F461E270E082E0D4D0E82EF12CE5
:1012000060E270E082E0CED0FE2CEE24E82A10C02E
:101210008034924051F565E270E082E0C3D0E82E60
:10122000F12C64E270E082E0BDD0FE2CEE24E82ACE
:10123000DFB6F894CE01EEDD888192E09883EC86EB
:10124000FD86F80125813681288F398F92819A8316
:1012500094819C8393819B839181998381709081F8
:10126000892B8883CE01F5DDDFBEDF91CF911F9101
:101270000F91FF90EF90DF900895FF920F931F93CF
:10128000CF93DF93EC018B01FFB6F894C3DD888127
:10129000807CF8018083888D998D858396838A81EF
:1012A00082838C8184838B81838389818183CE0136
:1012B000D0DDFFBEDF91CF911F910F91FF90089578
:1012C000CF92DF92EF92FF920F931F93CF93DF9312
:1012D0007C01D62E8A01862F837029F4962F96954D
:1012E000969582E002C0962F80E090FF8F5FE70125
:1012F000A09698E0899FC00DD11D1124CFB6F89417
:10130000C70188DDF8018081888382818A83818199
:101310008983D0FE02C083818E83C7019ADDCFBE50
:10132000DF91CF911F910F91FF90EF90DF90CF90C1
:101330000895CF92DF92EF92FF920F931F93CF9376
:10134000DF937C01D62E8A01862F837029F4962F95
:101350009695969582E002C0962F80E090FF8F5F71
:10136000E701A09698E0899FC00DD11D1124CFB64A
:10137000F894C7014FDD8881F80180838A818283D8
:1013800089818183D0FE02C08E818383C70161DDA4
:10139000CFBEDF91CF911F910F91FF90EF90DF9023
:1013A000CF9008954091CA01E62FF72F8093CA018C
:1013B00084914093CA010895CF92DF92EF92FF92F9
:1013C0000F931F93CF93DF93EC01D901C801B6951A
:1013D000A79597958795481759076A077B0778F46B
:1013E0006A017B01CC0CDD1CEE1CFF1CC901B8019D
:1013F000A70196010E9497192150310902C020E0EF
:1014000030E0832F8F708F832E83DF91CF911F91D8
:101410000F91FF90EF90DF90CF900895EF92FF92A1
:101420000F931F93CF93DF93EC017B01009709F497
:101430007BC1803C910521F460E180E00ADA74C14F
:101440008038914021F462E080E003DA6DC1C1157B
:1014500081E0D80721F461E080E0FBD965C1C038A4
:10146000E3E0DE0721F461E081E0F3D95DC1C0393A
:10147000F3E0DF0721F461E082E0EBD955C1C1154B
:1014800032E0D30721F462E081E0E3D94DC1C034FA
:1014900082E0D80721F462E082E0DBD945C1C032A6
:1014A000E3E0DE0721F464E082E0D3D93DC1C11559
:1014B000F8E0DF0721F461E083E0CBD935C1C11545
:1014C00039E0D30721F461E084E0C3D92DC1C1150F
:1014D0008AE0D80721F461E085E0BBD925C1C115B8
:1014E000EBE0DE0721F461E086E0B3D91DC1C03432
:1014F000F8E0DF0721F462E083E0ABD915C1C03426
:1015000039E0D30721F462E084E0A3D90DC1C034EF
:101510008AE0D80721F462E085E09BD905C1C03993
:10152000E8E0DE0721F464E083E093D9FDC0C03930
:10153000F9E0DF0721F464E084E08BD9F5C0C0391D
:101540003AE0D30721F464E085E083D9EDC0C039E7
:101550008BE0D80721F464E086E07BD9E5C0C03C8D
:10156000E8E0DE0721F468E083E073D9DDC0C03C29
:10157000F9E0DF0721F468E084E06BD9D5C0C03A18
:1015800038E0D30761F460E183E063D9E0EAF8E092
:1015900084818F7E8483F7012481225043C0C03A26
:1015A000F9E0DF0721F460E184E053D9BDC0C03A1F
:1015B0003AE0D30721F460E185E04BD9B5C0C03AE9
:1015C0008BE0D80721F460E186E043D9ADC0C03B91
:1015D000E8E0DE0721F460E283E03BD9A5C0C03B30
:1015E000F9E0DF0721F460E284E033D99DC0C03820
:1015F00034E0D30721F460E483E02BD995C0C03AEE
:1016000084E0D80721F460E485E023D98DC08C8183
:101610008F7E8C83FB0124812250CE01C03AF8E0FA
:10162000DF0731F480914E0684FD86C011E185C04C
:10163000803B38E0930779F0803AE9E09E0731F487
:1016400030916E0634FD7CC019E110C0803BF9E09A
:101650009F07A9F001C015E1803A3AE0930731F401
:1016600080918E0684FD6EC011E20CC0803A9B40D2
:1016700049F48091AE0684FD04C019E203C01DE167
:1016800001C01DE2E12FE695E695E69530E2E39F85
:10169000F0011124FA5F177081E090E0012E02C082
:1016A000880F991F0A94E2F78183223010F040E0FE
:1016B00001C040E4DF015096A10FB11D3FB7F8947F
:1016C0002C9127702C939C91942B9C933FBF8583E6
:1016D0008D81806C8D83F70184818D7F813021F431
:1016E0008D8182608D8303C08D818D7F8D83F70115
:1016F0008581882321F08D8184608D8303C08D8155
:101700008B7F8D83F701408151816281738100E875
:1017100014E82EE130E0CE014FDE8C8188608C83AE
:101720008C8180618C8310C08C818F7E8C83F701CB
:1017300024812250CE017CCF15E180EA98E086CF4B
:101740001DE194CF15E29ECFDF91CF911F910F91B4
:10175000FF90EF900895FC010396818392832FEF11
:101760003FEF23833483858396838783908710821A
:101770000895FC01108611860895CF93DF939C0194
:10178000FB01DC011196CD91DC911297C283D383CA
:101790008C819D81848395838C819D81DC0112964F
:1017A0006D937C9313976C837D8320873187F90138
:1017B00080818F5F8083DF91CF910895CF93DF93F6
:1017C000EB01488159814F3F2FEF520721F4FC0173
:1017D000A781B0850DC0DC01139601C0DF01129610
:1017E000ED91FC9113972081318142175307B0F797
:1017F0001296ED91FC911397EA83FB83C483D58302
:10180000AC83BD831296CD93DC9313978887998719
:10181000FC0120812F5F2083DF91CF910895CF932A
:10182000DF93FC01A085B185C281D381848195813C
:101830008C839D83C481D581828193818A839B839C
:101840001196CD91DC911297CE17DF0731F48C8180
:101850009D8111968D939C931297108611868C9181
:1018600081508C93DF91CF9108950F931F938B013B
:1018700071E1FC017083319762E26083319723E369
:101880002083012E000C220B330B319700833197FC
:1018900010833197208331971082319720E820837D
:1018A00031971082319722E02083319723E0208303
:1018B000319724E02083319725E02083319726E07B
:1018C0002083319727E02083319728E020833197C8
:1018D00029E02083319720E120833197708331976D
:1018E00022E12083319723E12083319724E1208373
:1018F000319725E12083319726E12083319727E135
:101900002083319728E12083319729E12083319783
:1019100020E22083319721E2208331976083319741
:1019200023E220833197408331975083319726E219
:101930002083319727E22083319728E22083319753
:1019400029E22083319720E32083319721E320830C
:1019500087971F910F910895F894E0E7F0E0838155
:101960008A7F8383E0E0F8E080E09AEF86A397A384
:1019700091E09683A0EAB0E012968C911297816074
:1019800012968C9390837894A091AC22B091AD2262
:101990000D900DBE0D900EBEFF91EF91DF91CF9196
:1019A000BF91AF919F918F917F916F915F914F9177
:1019B0003F912F911F910F91FF90EF90DF90CF906B
:1019C000BF90AF909F908F907F906F905F904F905F
:1019D0003F902F901F900F900FBE0F90089581E0C1
:1019E00008950F920FB6F8940F921F9211242F9220
:1019F0003F924F925F926F927F928F929F92AF929F
:101A0000BF92CF92DF92EF92FF920F931F932F938B
:101A10003F934F935F936F937F938F939F93AF9376
:101A2000BF93CF93DF93EF93FF93A091AC22B0913C
:101A3000AD220DB60D920EB60D9210D6A091AC222D
:101A4000B091AD220D900DBE0D900EBEFF91EF91A5
:101A5000DF91CF91BF91AF919F918F917F916F91C6
:101A60005F914F913F912F911F910F91FF90EF90B8
:101A7000DF90CF90BF90AF909F908F907F906F90AE
:101A80005F904F903F902F901F900F900FBE0F9040
:101A900008950F920FB6F8940F921F9211242F926F
:101AA0003F924F925F926F927F928F929F92AF92EE
:101AB000BF92CF92DF92EF92FF920F931F932F93DB
:101AC0003F934F935F936F937F938F939F93AF93C6
:101AD000BF93CF93DF93EF93FF93A091AC22B0918C
:101AE000AD220DB60D920EB60D924DD48111B6D524
:101AF000A091AC22B091AD220D900DBE0D900EBE06
:101B0000FF91EF91DF91CF91BF91AF919F918F9115
:101B10007F916F915F914F913F912F911F910F9105
:101B2000FF90EF90DF90CF90BF90AF909F908F90FD
:101B30007F906F905F904F903F902F901F900F90ED
:101B40000FBE0F901895CF93DF93EC010CD4CE010C
:101B50000E94C119EC01EAD4CE01DF91CF91089522
:101B6000CF93DF93009731F0EC01FDD3CE010E94BB
:101B7000561ADCD4DF91CF9108951F93CF93DF9352
:101B8000EC01142F8C8D8823E9F1411117C0482FE7
:101B900050E08C819D810E94EE1A2C8D8C819D815C
:101BA000820F911D8C839D832A813B81821793072D
:101BB00048F1888199818C839D8324C0482F50E00F
:101BC0008E819F810E94EE1A8C8D90E09195819577
:101BD00091092E813F81280F391F2E833F83488131
:101BE00059812417350730F42A813B81820F931FD6
:101BF0008E839F83123031F48A8D882319F08A8D69
:101C000081508A8F8A8D8F5F8A8F80E0DF91CF919C
:101C10001F910895FC01448D4423A9F050E02681D2
:101C20003781240F351F26833783828193812817BC
:101C3000390720F08081918186839783CB0166816B
:101C400077810C94EE1A08950F931F93CF93DF932F
:101C5000EC010FB6F8940F928E8D1816ACF48989AA
:101C6000811105C011C09989911104C00DC08E0168
:101C70000F5E1F4FC80196D5811116D69E8D9150CB
:101C80009E8F9E8D19167CF38FEF8E8F0F900FBE57
:101C90000FB6F8940F928D8D1816ACF488858111CB
:101CA00005C011C09885911104C00DC08E01085F58
:101CB0001F4FC80177D58111F7D59D8D91509D8F0C
:101CC0009D8D19167CF38FEF8D8F0F900FBEDF91D6
:101CD000CF911F910F910895CF93DF93EC010FB631
:101CE000F8940F92488159812C8D30E07B8D729F42
:101CF000C001739F900D1124FA01E80FF91FEA83C8
:101D0000FB831A8E4C835D83821B930B840F951F7C
:101D10008E839F838FEF8D8F8E8F61110AC0888590
:101D2000882369F0CE0108963DD5813041F459DE13
:101D300006C0CE0108960FDDCE0141960CDD0F9056
:101D40000FBE81E0DF91CF9108950F931F93CF9342
:101D5000DF93082F162F6623A9F0869FC001112458
:101D60008096F1DEEC01009721F412C0C883D9837C
:101D700003C04F96888399830B8F1C8F61E0CE013F
:101D8000ABDF06C08FE190E0DEDEEC01892B71F75E
:101D9000CE01DF91CF911F910F910895AF92BF9225
:101DA000CF92DF92EF92FF920F931F93CF93DF9327
:101DB000CDB7DEB72597CDBFDEBF8C016B014C835D
:101DC0005D83A22EB12C7C0188E0E80EF11C0FB6D9
:101DD000F8940F92F801328D938D391718F0F2E0D4
:101DE000AF1215C04A2DB601C801C7DEF8019189AE
:101DF000992339F0C8014196D5D4813021F4F1DD21
:101E000002C08111EEDD0F900FBE81E046C0EC8173
:101E1000FD81EF2B21F40F900FBE80E03EC0B1108A
:101E200005C0CE01019604D5BB24B3940F900FBE1C
:101E30009AD20FB6F8940F92F801858D8F3F09F46E
:101E4000158EF801868D8F3F09F4168E0F900FBE08
:101E5000BE016C5F7F4FCE010196F5D4811119C090
:101E60000FB6F8940F92F801928D0F900FBE838DEC
:101E700098130BC06C817D81C7015DD4C801E4DE7D
:101E800055D38111A4CFADDDA2CFC801DDDE4ED385
:101E90009ECFC801D9DE4AD380E02596CDBFDEBFF4
:101EA000DF91CF911F910F91FF90EF90DF90CF9036
:101EB000BF90AF9008950F931F93CF93DF93FA01D4
:101EC000DC015A965C915A975B963C91531710F03F
:101ED0002230D9F4422F8F01EC014FDE8E8D8F3FDF
:101EE00079F48989882399F0CE0141965BD48823BF
:101EF00081F00115110579F081E0F80180830CC0B3
:101F00008E8D8F5F8E8F81E007C080E005C081E0FD
:101F100003C081E001C081E0DF91CF911F910F915B
:101F20000895AF92BF92CF92DF92EF92FF920F93FC
:101F30001F93CF93DF93CDB7DEB72597CDBFDEBF1D
:101F40008C016B014C835D83A22EB12C7C0181E15D
:101F5000E80EF11C0FB6F8940F92F801928D9923B8
:101F600021F1E680F780B601C80154DEA1100EC051
:101F7000F801828D8150828F8085882391F0C8017D
:101F8000089610D4813069F42CDD0BC0F801E6828C
:101F9000F7828189882329F0C801419603D48111F1
:101FA00020DD0F900FBE81E045C04C815D81452B47
:101FB00021F40F900FBE80E03DC0B11005C0CE01EE
:101FC000019636D4BB24B3940F900FBECCD10FB67C
:101FD000F8940F92F801858D8F3F09F4158EF80162
:101FE000968D9F3F09F4168E0F900FBEBE016C5F59
:101FF0007F4FCE01019627D4811118C00FB6F894F7
:102000000F92F801828D0F900FBE81110BC06C8171
:102010007D81C70190D3C80117DE88D281119ACF84
:10202000E0DC98CFC80110DE81D294CFC8010CDE6D
:102030007DD280E02596CDBFDEBFDF91CF911F918D
:102040000F91FF90EF90DF90CF90BF90AF900895E9
:10205000CF93DF93EC010FB6F8940F928D8D8F3FE5
:1020600009F41D8E8E8D8F3F09F41E8E0F900FBECA
:102070008A8D811103C0CE01419678D3CE01E4DD73
:10208000DF91CF910895CFE7D2E288818230F0F3DB
:10209000A8DCFBCFCF93DF93EC01E091AC22F09171
:1020A000AD228283938380915D2290915E22C81736
:1020B000D90760F46091AC227091AD2280916922C1
:1020C00090916A226E5F7F4F79DB16C06091AC22DF
:1020D0007091AD2280916B2290916C226E5F7F4F48
:1020E0006DDB8091552290915622C817D90720F4B4
:1020F000C0935522D0935622DF91CF9108954F92ED
:102100005F926F927F928F929F92AF92BF92CF9287
:10211000DF92EF92FF920F931F93CF93DF934C01C7
:10212000EB015A012901C114D10431F4CA010BDDBC
:102130006C01892B09F4D2C086E290E004DD3C01F9
:10214000009779F0FC01C78AD08EF1E0AF1AB10890
:10215000CA0CDB1C8881F301818F8881811104C046
:1021600013C0C601FDDCBAC0D3015A96FE013196F8
:102170009E01285F3F4FEF0181918D9388818823D5
:1021800019F0E217F307B9F7F30110A2102F053089
:1021900008F014E0F301168BE3012296CE01E9DA90
:1021A000C3010C96E6DAF3016086718685E090E063
:1021B000811B910984879587628A738A11A212A272
:1021C00013A214A215A2A201B401C6014EDBF301B1
:1021D00080839183E114F10419F0F7016082718228
:1021E0000FB6F8940F9280915F228F5F80935F22E9
:1021F0008091AC229091AD22892B91F56092AC2216
:102200007092AD2280915F228130C9F50F2EFFE7D9
:10221000EF2EF2E2FF2EF02D0F2EFCEACF2EF2E28F
:10222000DF2EF02DC70197DAF9E0EF0EF11CEC1468
:10223000FD04C1F786E792E28EDA8DE692E28BDA50
:1022400080E692E288DA86E792E280936B229093AE
:102250006C228DE692E28093692290936A220FC0ED
:1022600080915B2281110BC0E091AC22F091AD22F4
:102270008689081720F06092AC227092AD2280917E
:1022800057228F5F80935722F301868990915C22B9
:10229000981710F480935C2290E09C01220F331F6A
:1022A000220F331F220F331F820F931FBE0181584D
:1022B0009D4D63DA0F900FBE80915B22882351F011
:1022C000E091AC22F091AD228689801728F489DB59
:1022D00081E005C081E003C081E001C08FEFDF91A4
:1022E000CF911F910F91FF90EF90DF90CF90BF9013
:1022F000AF909F908F907F906F905F904F900895D8
:10230000AF92BF92CF92DF92EF92FF920F93A12CE8
:10231000B12CC12CD12CE12CF12C00E020E030E0DC
:1023200045E550E06DE070E283E490E1E8DE813065
:1023300091F423D3813079F4F8948FEF9FEF809359
:1023400055229093562281E080935B2210925D2269
:1023500010925E2201DB0F91FF90EF90DF90CF9003
:10236000BF90AF900895809154228F5F8093542244
:1023700008950FB6F8940F9280915D2290915E229D
:102380000F900FBE0895DF92EF92FF920F931F936D
:10239000CF93DF93809154228111B3C080915D224D
:1023A00090915E22019680935D2290935E22E09050
:1023B0005D22F0905E22E114F10499F580916B2288
:1023C00090916C222091692230916A2220936B2295
:1023D00030936C228093692290936A2280915822D4
:1023E0008F5F80935822E0916B22F0916C22808164
:1023F000811107C08FEF9FEF809355229093562253
:1024000010C0E0916B22F0916C220580F681E02DE6
:102410000680F781E02D82819381809355229093ED
:1024200056228091552290915622E816F90610F412
:10243000D12C4FC0D12CE0916B22F0916C22908175
:10244000911107C08FEF9FEF8093552290935622F2
:1024500040C0E0916B22F0916C220580F681E02D66
:10246000C681D7812A813B81E216F30628F42093A6
:102470005522309356222DC08E010E5F1F4FC8018A
:10248000CED98C899D89892B19F0CE010C96C7D99C
:102490002E8980915C22821710F420935C2230E018
:1024A000C901880F991F880F991F880F991F820FE4
:1024B000931FB80181589D4D60D9E091AC22F091F5
:1024C000AD229E898689981708F4B5CFDD24D39470
:1024D000B2CFE091AC22F091AD22868990E0FC0170
:1024E000EE0FFF1FEE0FFF1FEE0FFF1F8E0F9F1F40
:1024F000FC01E158FD4D8081823048F0DD24D39409
:1025000006C080915A228F5F80935A22D12C8091ED
:102510005922882311F0DD24D3948D2DDF91CF91A2
:102520001F910F91FF90EF90DF900895DF92EF924F
:10253000FF920F931F93CF93DF930FB6F8940F92F0
:102540008091542281508093542280915422811191
:102550005DC080915F22811130C05BC0D7011596AC
:10256000ED91FC911697C681D781CE010C9657D973
:102570008E010E5F1F4FC80152D92E8980915C22B7
:10258000821710F420935C2230E0C901880F991F54
:10259000880F991F880F991F820F931FB8018158C8
:1025A0009D4DEBD8E091AC22F091AD229E898689B9
:1025B000981758F0D092592208C00F2EF0E6EF2E4F
:1025C000F2E2FF2EF02DDD24D394F70180818111FA
:1025D000C5CF80915A22882391F080915A22882376
:1025E00071F0C1E0D0DE8111C093592280915A224E
:1025F000815080935A2280915A228111F3CF809189
:102600005922813029F4EDD981E003C080E001C076
:1026100080E00F900FBEDF91CF911F910F91FF903F
:10262000EF90DF900895CF93DF93EC01892B91F029
:102630009ADE80915D2290915E22C80FD91F809111
:10264000AC229091AD220296EAD8CE0123DD6EDF56
:10265000811101C0C6D9DF91CF9108958091542294
:10266000882321F081E08093592208951092592205
:1026700080915C2290E0FC01EE0FFF1FEE0FFF1F28
:10268000EE0FFF1F8E0F9F1FFC01E158FD4D808153
:10269000811117C080915C22815080935C228091CF
:1026A0005C2290E0FC01EE0FFF1FEE0FFF1FEE0F0C
:1026B000FF1F8E0F9F1FFC01E158FD4D8081882375
:1026C00049F380915C2290E09C01220F331F220F7E
:1026D000331F220F331F280F391FD901A158BD4DB9
:1026E0001196ED91FC9112970280F381E02D1196E5
:1026F000ED93FC9312972E573D4DE217F30729F403
:1027000022813381FD0121833283FC01EE0FFF1F03
:10271000EE0FFF1FEE0FFF1F8E0F9F1FFC01E158F2
:10272000FD4D0180F281E02D868197818093AC225E
:102730009093AD220895CF93DF93EB012091AC22CB
:102740003091AD22B901645F7F4F38D88091AC22BF
:102750009091AD22029663D880915D2290915E2285
:102760008C0F9D1F97DCDF91CF910895CF93DF935E
:10277000EB012091AC223091AD22B901645F7F4F13
:102780000E94BD0B8091AC229091AD22029647D859
:1027900080915D2290915E228C0F9D1F7BDCDF91EA
:1027A000CF9108950F931F93CF93DF93DC0115967C
:1027B000ED91FC911697C681D7818E01045F1F4F62
:1027C000C8012DD88091542281111BC00A501109D3
:1027D000C80125D82E8980915C22821710F420939D
:1027E0005C2230E0C901880F991F880F991F880F5C
:1027F000991F820F931FB80181589D4D0E94BD0BF8
:1028000005C0B80180E692E20E94BD0BE091AC22C7
:10281000F091AD229E898689891720F481E080930A
:10282000592201C080E0DF91CF911F910F9108954F
:1028300020915822FC01208320915D2230915E225C
:10284000218332830895CF93DF93FC010FB6F89470
:102850000F9220915D2230915E22809158229081CA
:10286000981729F08181928128173907A8F4A1814E
:10287000B281EB0148815981C9018A1B9B0B8417E6
:10288000950760F4CF01A21BB30B4A0F5B1F48836F
:102890005983CEDF80E003C081E001C081E00F906A
:1028A0000FBEDF91CF91089581E080935922089562
:1028B00080915B22882331F080915422882321F07B
:1028C00080E0089581E0089582E00895FC0162832C
:1028D0007383808791874617570790F0421B530BED
:1028E0008485958548175907E0F4BF016E5F7F4FD7
:1028F0008091B2229091B3220E94DE0B80E0089575
:102900004217530718F46217730768F4BF016E5F2C
:102910007F4F8091B4229091B5220E94DE0B80E01F
:10292000089581E0089581E008950FB6F8940F921C
:102930008091B0229091B122892BE1F48FEB92E249
:102940000E94AB0B86EB92E20E94AB0B8FEB92E204
:102950008093B4229093B52286EB92E28093B222C8
:102960009093B32240E065E08AE0EFD98093B022F3
:102970009093B1220F900FBE0895AF92BF92CF9265
:10298000DF92EF92FF920F93D0DF8091B02290916F
:10299000B122892B89F0A12CB12CC12CD12CE12C96
:1029A000F12C03E020E030E045E550E062E170E228
:1029B0008BEC95E1A4DB01C080E00F91FF90EF90DC
:1029C000DF90CF90BF90AF9008958F929F92BF926B
:1029D000CF92DF92EF92FF920F931F93CF93DF93EB
:1029E00061157105C9F06901B42E7B014C0183E1C9
:1029F00090E0A9D8EC01892B89F097DF8882998231
:102A0000EC86FD86BE86CF86D88A098B1A8BCE01CE
:102A100002960E94B90B02C0C0E0D0E0CE01DF9167
:102A2000CF911F910F91FF90EF90DF90CF90BF90CB
:102A30009F908F9008950F931F93CF93DF93CDB7FF
:102A4000DEB72597CDBFDEBFE091B022F091B12275
:102A5000309751F1D90169834A835B838C839D83CD
:102A60006630D4F425DF823059F420E0A801BE019D
:102A70006F5F7F4F8091B0229091B1228FD915C0A6
:102A800020E040E050E0BE016F5F7F4F8091B022B8
:102A90009091B12283D909C020E0AD01BE016F5FE2
:102AA0007F4FCF0108DA01C080E02596CDBFDEBFA1
:102AB000DF91CF911F910F910895AF92BF92CF9266
:102AC000DF92EF92FF920F931F93CF93DF936C01EE
:102AD00050DC7C018091AE229091AF22E816F9067D
:102AE00008F047C02FC00580F681E02DA080B1809E
:102AF000C681D7818E010E5F1F4FC8010E940F0C47
:102B0000E989FA89CE0119958E858130D9F48C85B1
:102B10009D858A0D9B1DA816B90660F48A839B8348
:102B2000C887D987B8018091B4229091B5220E94BC
:102B3000DE0B08C000E010E020E030E0A50160E01E
:102B4000CE0179DFE091B422F091B522908191110C
:102B5000CACF8091B2229091B3228093B4229093F5
:102B6000B522E093B222F093B32281E0F601808394
:102B700002C0F6011082E092AE22F092AF22C701AD
:102B8000DF91CF911F910F91FF90EF90DF90CF9049
:102B9000BF90AF900895CF93DF9300D000D0CDB712
:102BA000DEB7CE0101965C01E82EFB2CE091B42249
:102BB000F091B5228081882369F00580F681E02DAF
:102BC000C080D180D0DBC50178DF8C01898188236A
:102BD00049F056C0C8DBC50170DF8C0189818823AC
:102BE000A9F14EC00C151D0508F43BC09FDCE09117
:102BF000B422F091B5220580F681E02D8680978081
:102C0000C40102960E940F0CD4011E968C911E974F
:102C10008130A1F41C966D917C911D976C0D7D1DEA
:102C20009601A801C40152DE813041F400E010E0B9
:102C300020E030E0A60160E0C401FDDED401519641
:102C4000ED91FC915297C401199575C0E091B222A3
:102C5000F091B32241E08081811140E0C12CD12C60
:102C600001C040E0B601601B710B8091B0229091D1
:102C7000B122EED95BDC81115EC00E94F10C5BC019
:102C800055DC59C0998199230CF455C0CC80DD8066
:102C9000F60182859385892B21F0C60102960E9458
:102CA0000F0CCE01069609DFAC010981002E000C45
:102CB000110B220B330B0A30110508F03CC0F80150
:102CC0008827E250FF4F8F4F54C32A813B81D601A2
:102CD0001C966D917C911D97620F731FC601F6DDE6
:102CE000813049F5D6015196ED91FC915297C6017C
:102CF0001995F60186858130F1F4448555858A81E0
:102D00009B81480F591F00E010E020E030E060E0B8
:102D1000C60191DE10C06A817B81D6011C966D933D
:102D20007C931D97640F751F9A01C601CFDD03C008
:102D3000C6010E94B00D20E040E050E06E2D7F2DD6
:102D40008091B0229091B122ECD881119BCF2ECFEF
:102D5000CF93DF93FC01709620E030E0C62FD0E0E7
:102D6000DE01022E02C0B595A7950A94E2F7A0FDF8
:102D700050832F5F3F4F31962830310589F740FF50
:102D80000AC041FF03C0FC01658302C0FC016683E9
:102D9000FC01618302C0FC016283DF91CF91089541
:102DA00043E050E061E080EE97E0D2DF43E050E0A6
:102DB00062E080EE97E0CCDF43E050E060E180E647
:102DC00096E0C6DF41E050E460E280E696E0C0DFD6
:102DD00040E05BE160E280E896E0BADF40E05BE182
:102DE00062E080EA96E0B4DF40E05BE164E080EA24
:102DF00096E0AEDF43E050E062E080E696E0A8DFD8
:102E000043E050E068E080E696E0A2DF43E050E077
:102E100068E080EA96E09CDF43E050E061E080E615
:102E200096E096DF43E050E068E080E096E090DFD7
:102E300041E050E060E180E896E08ADF43E050E066
:102E400062E080E696E084DF43E050E068E080E600
:102E500096E07EDF40E050E064E080E696E078DFD8
:102E600043E050E060E180EA96E072DF40E050E04D
:102E700061E080E096E06CDF40E050E064E080E0FC
:102E800096E066DF40E050E062E080E296E060DFDE
:102E900043E050E068E080E496E05ADF40E050E034
:102EA00064E080E496E054DF43E050E068E080E6D0
:102EB00096E04EDF40E050E064E080E696E048DFD8
:102EC00043E050E068E080E896E042DF40E050E018
:102ED00064E080E896E03CCF089580919123909142
:102EE0009223A0919323B09194230196A11DB11D2B
:102EF0008093912390939223A0939323B093942350
:102F00000895C0EED7E011E0012F0E8382E390E038
:102F10008ADB1D8382E390E086DBF7CFC0E0D2E05E
:102F20006894FF24F2F800E312E0CE010E94460705
:102F30009FB7F8948881806188839FBF9E8192FFAC
:102F4000FDCFFE82F8018481958180939523909333
:102F5000962385E090E067DBE8CFC0E0D2E068949C
:102F6000FF24F1F808E212E0CE010E9446079FB765
:102F7000F8948881886088839FBF9E8191FFFDCFF0
:102F8000FE82F80184819581809397239093982302
:102F900085E090E048DBE8CFC0E0D2E011E0CE0170
:102FA0000E9446079FB7F8948881846088839FBFFA
:102FB0009E8190FFFDCF1E838CA19DA180939923BC
:102FC00090939A2385E090E02EDBE9CF80E1809317
:102FD00085060F2EFAE1AF2EF0E2BF2EF02D19EC90
:102FE000C8ECD2E20F2EFBE2CF2EF0E2DF2EF02D66
:102FF0000F2EFBE3EF2EF0E2FF2EF02D80919A23AF
:103000008F93809199238F93BF92AF921F921F93BA
:10301000DF93CF93ECD226E030E240E060E0CE01D7
:103020000E946C06809198238F93809197238F93B1
:10303000DF92CF921F921F93DF93CF93D8D226E0D7
:1030400030E24AE060E0CE010E946C068091962357
:103050008F93809195238F93FF92EF921F921F93EE
:10306000DF93CF93C4D226E030E244E160E0CE01AA
:103070000E946C0682E090E0D6DA8DB79EB7489643
:103080008DBF9EBFBBCFE0E4F6E08081816080838E
:10309000E0E0F8E085E0808386E1818388EE93E0DC
:1030A00086A397A387E791E080A791A70895EBDF18
:1030B000E0EAF6E0C0E0D8E06EE571E0A0E6B6E058
:1030C00010E290E141E050E022E830E0808581FDAF
:1030D0000CC0808582FF09C028A739A716969C934B
:1030E000169715961C931597F1CF808582FD0CC01D
:1030F000808581FF09C048A759A716961C9316978B
:1031000015969C931597E2CF808581FFDFCF808550
:1031100082FFDCCF68A779A715961C9315971596A3
:103120009C931597D3CF8F929F92AF92BF92CF92DD
:10313000DF92EF92FF920F931F93CF93DF93CDB760
:10314000DEB72B97CDBFDEBF2BDE87E08093A200DA
:10315000BE016F5F7F4F80E092E00E943D09AE01AB
:10316000485F5F4F61E080E092E00E9499099A8198
:103170008B818F7880618B83892F817E8A831C82EB
:1031800002E00D8311E018871986BE016F5F7F4F43
:1031900080E092E00E94ED08AE01485F5F4F61E081
:1031A00080E092E00E946009BE016F5F7F4F80E087
:1031B00092E00E943D09AE01485F5F4F62E080E00F
:1031C00092E00E9499099A818B818F7880618B832C
:1031D000892F817E8A831C820D83188788E08987E6
:1031E000BE016F5F7F4F80E092E00E94ED08AE016C
:1031F000485F5F4F62E080E092E00E946009BE019C
:103200006F5F7F4F80E092E00E943D09AE01485F12
:103210005F4F64E080E092E00E9499099A818B817F
:103220008F7880618B83892F817E8A831C820D83B6
:10323000188780E18987BE016F5F7F4F80E092E051
:103240000E94ED08AE01485F5F4F64E080E092E0CD
:103250000E9460090E94E7040DE617E120E030E0DB
:1032600041E061E070E08AE490E2AFDB4C01A12C28
:10327000B12CC12CD12CE12CF12C01E020E030E06C
:1032800044EF51E061E170E281E897E10E947F1034
:1032900020E030E044EF51E061E170E286EE97E13A
:1032A0000E947F1020E030E044EF51E061E170E2E5
:1032B0008CEC97E10E947F1020E030E044EF51E079
:1032C00061E170E28DEA97E10E947F1020E030E03A
:1032D00044EF51E061E170E287E598E10E947F10E0
:1032E00020E030E044EF51E061E170E28EE897E1E8
:1032F0000E947F103ED800E010E020E030E0AC01FA
:1033000061E0C40198DB0E94801180E090E02B9680
:10331000CDBFDEBFDF91CF911F910F91FF90EF9056
:10332000DF90CF90BF90AF909F908F900895A1E2D3
:103330001A2EAA1BBB1BFD010DC0AA1FBB1FEE1F2F
:10334000FF1FA217B307E407F50720F0A21BB30B7A
:10335000E40BF50B661F771F881F991F1A9469F7F6
:1033600060957095809590959B01AC01BD01CF0152
:103370000895EE0FFF1F881F8BBF0790F691E02D79
:103380001994CF93DF938230910510F482E090E09E
:10339000E091A723F091A82320E030E0C0E0D0E046
:1033A000309711F14081518148175907C0F04817F3
:1033B000590761F482819381209719F08A839B8356
:1033C0002BC08093A7239093A82326C021153105F5
:1033D00019F04217530718F49A01BE01DF01EF01FB
:1033E0000280F381E02DDCCF2115310509F1281B86
:1033F000390B2430310590F412968D919C911397DE
:103400006115710521F0FB018283938304C08093D1
:10341000A7239093A823FD01329644C0FD01E20F3B
:10342000F31F81939193225031092D933C933AC01D
:103430002091A5233091A623232B41F42091022033
:10344000309103202093A5233093A62320910020C0
:10345000309101202115310541F42DB73EB740913F
:10346000042050910520241B350BE091A523F091F9
:10347000A623E217F307A0F42E1B3F0B28173907EA
:1034800078F0AC014E5F5F4F2417350748F04E0FC0
:103490005F1F4093A5235093A6238193919302C06D
:1034A000E0E0F0E0CF01DF91CF9108950F931F93FB
:1034B000CF93DF93009709F48CC0FC0132971282FE
:1034C00013820091A7231091A8230115110581F4FF
:1034D00020813181820F931F2091A5233091A62353
:1034E0002817390779F5E093A523F093A62371C037
:1034F000D80140E050E0AE17BF0750F412962D916E
:103500003C911397AD012115310509F1D901F3CF94
:103510009D01DA012283338360817181860F971FB9
:103520008217930769F4EC0128813981260F371F30
:103530002E5F3F4F208331838A819B8182839383D7
:10354000452B29F4E093A723F093A82342C01296B9
:10355000ED93FC931397ED01499159919E01240F2E
:10356000351FE217F30771F480819181840F951F55
:1035700002968D939C9311978281938112968D93DD
:103580009C931397E0E0F0E0D80112968D919C9106
:103590001397009719F0F8018C01F6CF8D919C914B
:1035A00098012E5F3F4F820F931F2091A5233091EA
:1035B000A6232817390769F4309729F41092A72316
:1035C0001092A82302C0128213820093A5231093A5
:1035D000A623DF91CF911F910F910895FB01DC018C
:1035E00002C001900D9241505040D8F708950F93BA
:1035F0001F93CF93DF93CDB7DEB72E97CDBFDEBF3E
:103600000E891F89888D998D26E02C8309831A8362
:1036100097FF02C080E090E801978D839E83AE0102
:10362000445E5F4F6A8D7B8DCE01019616D04D8131
:103630005E8157FD0AC02F813885421753070CF46D
:103640009A01F801E20FF31F10822E96CDBFDEBF64
:10365000DF91CF911F910F9108952F923F924F923A
:103660005F926F927F928F929F92AF92BF92CF9212
:10367000DF92EF92FF920F931F93CF93DF93CDB71B
:10368000DEB72C97CDBFDEBF7C016B018A01FC0148
:1036900016821782838181FFB0C1CE0101964C0151
:1036A000F7019381F60193FD859193FF81916F015D
:1036B000882309F49EC1853239F493FD859193FFE7
:1036C00081916F01853221F4B70190E0C4D1E8CF38
:1036D000512C312C20E02032A0F48B3269F030F4F0
:1036E000803259F0833269F420612CC08D3239F078
:1036F000803339F4216026C02260246023C0286012
:1037000021C027FD27C030ED380F3A3078F426FF6E
:1037100006C0FAE05F9E300D1124532E13C08AE0DC
:10372000389E300D1124332E20620CC08E3221F4CD
:1037300026FD5FC1206406C08C3611F4206802C0EB
:10374000883641F4F60193FD859193FF81916F01D5
:103750008111C1CF982F9F7D9554933028F40C5F31
:103760001F4FFFE3F9830DC0833631F0833771F0CB
:10377000833509F057C021C0F801808189830E5F2D
:103780001F4F44244394512C540114C03801F2E0DB
:103790006F0E711CF801A080B18026FF03C0652D5B
:1037A00070E002C06FEF7FEFC5012C8749D12C017B
:1037B00083012C852F77222E16C03801F2E06F0E80
:1037C000711CF801A080B18026FF03C0652D70E058
:1037D00002C06FEF7FEFC5012C8727D12C012C850C
:1037E0002068222E830123FC19C0832D90E0481607
:1037F0005906A0F4B70180E290E02DD13A94F5CFBC
:10380000F50127FC859127FE81915F01B70190E0CA
:1038100022D131103A94F1E04F1A51084114510469
:1038200079F7DEC0843611F0893631F5F80127FFCB
:1038300007C060817181828193810C5F1F4F08C036
:1038400060817181072E000C880B990B0E5F1F4F52
:103850002F76722E97FF09C090958095709561958F
:103860007F4F8F4F9F4F2068722E2AE030E0A401D7
:103870002AD1A82EA81843C0853729F42F7EB22E4E
:103880002AE030E025C0F22FF97FBF2E8F36C1F03D
:1038900018F4883579F0ADC0803719F0883721F0F9
:1038A000A8C02F2F2061B22EB4FE0DC08B2D8460D6
:1038B000B82E09C024FF0AC09F2F9660B92E06C0FB
:1038C00028E030E005C020E130E002C020E132E035
:1038D000F801B7FE07C060817181828193810C5F1E
:1038E0001F4F06C06081718180E090E00E5F1F4F26
:1038F000A401E9D0A82EA818FB2DFF777F2E76FE15
:103900000BC0372D3E7FA51450F474FE0AC072FC24
:1039100008C0372D3E7E05C0BA2C372D03C0BA2C07
:1039200001C0B52C34FF0DC0FE01EA0DF11D8081F0
:10393000803311F4397E09C032FF06C0B394B394CA
:1039400004C0832F867809F0B39433FD12C030FF92
:1039500006C05A2CB31418F4530C5B18B32CB314D0
:1039600060F4B70180E290E03C8775D0B3943C8569
:10397000F6CFB31410F43B1801C0312C34FF11C042
:10398000B70180E390E03C8766D03C8532FF16C0EB
:1039900031FD03C088E790E002C088E590E0B70100
:1039A0000CC0832F867851F031FF02C08BE201C03A
:1039B00080E237FD8DE2B70190E04DD0A51430F4E0
:1039C000B70180E390E047D05A94F8CFAA94F4016D
:1039D000EA0DF11D8081B70190E03DD0A110F6CF36
:1039E000332009F45DCEB70180E290E034D03A9400
:1039F000F7CFF7018681978102C08FEF9FEF2C965A
:103A0000CDBFDEBFDF91CF911F910F91FF90EF905F
:103A1000DF90CF90BF90AF909F908F907F906F90EE
:103A20005F904F903F902F900895FC01059061505A
:103A300070400110D8F7809590958E0F9F1F0895C4
:103A4000FC016150704001900110D8F7809590956D
:103A50008E0F9F1F08950F931F93CF93DF93FB014A
:103A6000238121FD03C08FEF9FEF28C022FF16C0E6
:103A700046815781248135814217530744F4A08140
:103A8000B1819D012F5F3F4F208331838C9326812D
:103A900037812F5F3F4F2683378310C0EB01092FFB
:103AA000182F0084F185E02D1995892BE1F68E8180
:103AB0009F8101968E839F83812F902FDF91CF91DD
:103AC0001F910F910895FA01AA27283051F1203152
:103AD00081F1E8946F936E7F6E5F7F4F8F4F9F4FA2
:103AE000AF4FB1E03ED0B4E03CD0670F781F891FE4
:103AF0009A1FA11D680F791F8A1F911DA11D6A0FB2
:103B0000711D811D911DA11D20D009F468943F9164
:103B10002AE0269F11243019305D3193DEF6CF0163
:103B20000895462F4770405D4193B3E00FD0C9F729
:103B3000F6CF462F4F70405D4A3318F0495D31FD96
:103B40004052419302D0A9F7EACFB4E0A6959795E9
:103B5000879577956795BA95C9F7009761057105BF
:103B600008959B01AC010A2E069457954795379509
:103B70002795BA95C9F7620F731F841F951FA01D63
:063B80000895F894FFCF48
:103B86000000A92320000010020607207D49444CAE
:103B96004500546D72205376630052656164204C73
:103BA60069676874203A2025336400526561642091
:103BB60054656D70203A2025336400526561642097
:103BC600506F74203A20253364007450696E670084
:00000001FF
